{
  "_format": "hh-sol-artifact-1",
  "contractName": "OpenVesting",
  "sourceName": "contracts/OpenVestigal.sol",
  "abi": [
    {
      "inputs": [
        {
          "internalType": "address",
          "name": "_primaryToken",
          "type": "address"
        },
        {
          "internalType": "address",
          "name": "_secondaryToken",
          "type": "address"
        }
      ],
      "stateMutability": "nonpayable",
      "type": "constructor"
    },
    {
      "inputs": [
        {
          "internalType": "address",
          "name": "owner",
          "type": "address"
        }
      ],
      "name": "OwnableInvalidOwner",
      "type": "error"
    },
    {
      "inputs": [
        {
          "internalType": "address",
          "name": "account",
          "type": "address"
        }
      ],
      "name": "OwnableUnauthorizedAccount",
      "type": "error"
    },
    {
      "anonymous": false,
      "inputs": [
        {
          "indexed": true,
          "internalType": "address",
          "name": "previousOwner",
          "type": "address"
        },
        {
          "indexed": true,
          "internalType": "address",
          "name": "newOwner",
          "type": "address"
        }
      ],
      "name": "OwnershipTransferred",
      "type": "event"
    },
    {
      "anonymous": false,
      "inputs": [
        {
          "indexed": true,
          "internalType": "address",
          "name": "user",
          "type": "address"
        },
        {
          "indexed": false,
          "internalType": "uint256",
          "name": "amount",
          "type": "uint256"
        }
      ],
      "name": "TokensClaimed",
      "type": "event"
    },
    {
      "anonymous": false,
      "inputs": [
        {
          "indexed": true,
          "internalType": "address",
          "name": "buyer",
          "type": "address"
        },
        {
          "indexed": false,
          "internalType": "uint256",
          "name": "amount",
          "type": "uint256"
        }
      ],
      "name": "TokensPurchased",
      "type": "event"
    },
    {
      "inputs": [],
      "name": "claimTokens",
      "outputs": [],
      "stateMutability": "nonpayable",
      "type": "function"
    },
    {
      "inputs": [],
      "name": "owner",
      "outputs": [
        {
          "internalType": "address",
          "name": "",
          "type": "address"
        }
      ],
      "stateMutability": "view",
      "type": "function"
    },
    {
      "inputs": [],
      "name": "primaryToken",
      "outputs": [
        {
          "internalType": "contract IERC20",
          "name": "",
          "type": "address"
        }
      ],
      "stateMutability": "view",
      "type": "function"
    },
    {
      "inputs": [
        {
          "internalType": "uint256",
          "name": "_amount",
          "type": "uint256"
        },
        {
          "internalType": "uint256",
          "name": "_vestingDuration",
          "type": "uint256"
        }
      ],
      "name": "purchaseTokens",
      "outputs": [],
      "stateMutability": "nonpayable",
      "type": "function"
    },
    {
      "inputs": [],
      "name": "renounceOwnership",
      "outputs": [],
      "stateMutability": "nonpayable",
      "type": "function"
    },
    {
      "inputs": [],
      "name": "secondaryToken",
      "outputs": [
        {
          "internalType": "contract IERC20",
          "name": "",
          "type": "address"
        }
      ],
      "stateMutability": "view",
      "type": "function"
    },
    {
      "inputs": [],
      "name": "totalFundsAllocated",
      "outputs": [
        {
          "internalType": "uint256",
          "name": "",
          "type": "uint256"
        }
      ],
      "stateMutability": "view",
      "type": "function"
    },
    {
      "inputs": [],
      "name": "totalFundsSold",
      "outputs": [
        {
          "internalType": "uint256",
          "name": "",
          "type": "uint256"
        }
      ],
      "stateMutability": "view",
      "type": "function"
    },
    {
      "inputs": [
        {
          "internalType": "address",
          "name": "newOwner",
          "type": "address"
        }
      ],
      "name": "transferOwnership",
      "outputs": [],
      "stateMutability": "nonpayable",
      "type": "function"
    },
    {
      "inputs": [
        {
          "internalType": "address",
          "name": "",
          "type": "address"
        }
      ],
      "name": "vestingSchedules",
      "outputs": [
        {
          "internalType": "uint256",
          "name": "totalAllocation",
          "type": "uint256"
        },
        {
          "internalType": "uint256",
          "name": "released",
          "type": "uint256"
        },
        {
          "internalType": "uint256",
          "name": "startTime",
          "type": "uint256"
        },
        {
          "internalType": "uint256",
          "name": "duration",
          "type": "uint256"
        }
      ],
      "stateMutability": "view",
      "type": "function"
    },
    {
      "inputs": [
        {
          "internalType": "address",
          "name": "_to",
          "type": "address"
        },
        {
          "internalType": "uint256",
          "name": "_amount",
          "type": "uint256"
        }
      ],
      "name": "withdrawFunds",
      "outputs": [],
      "stateMutability": "nonpayable",
      "type": "function"
    }
  ],
  "bytecode": "0x60806040523480156200001157600080fd5b5060405162001a7038038062001a70833981810160405281019062000037919062000324565b33600073ffffffffffffffffffffffffffffffffffffffff168173ffffffffffffffffffffffffffffffffffffffff1603620000ad5760006040517f1e4fbdf7000000000000000000000000000000000000000000000000000000008152600401620000a491906200037c565b60405180910390fd5b620000be81620001f660201b60201c565b50600073ffffffffffffffffffffffffffffffffffffffff168273ffffffffffffffffffffffffffffffffffffffff16141580156200012a5750600073ffffffffffffffffffffffffffffffffffffffff168173ffffffffffffffffffffffffffffffffffffffff1614155b6200016c576040517f08c379a00000000000000000000000000000000000000000000000000000000081526004016200016390620003fa565b60405180910390fd5b81600160006101000a81548173ffffffffffffffffffffffffffffffffffffffff021916908373ffffffffffffffffffffffffffffffffffffffff16021790555080600260006101000a81548173ffffffffffffffffffffffffffffffffffffffff021916908373ffffffffffffffffffffffffffffffffffffffff16021790555050506200041c565b60008060009054906101000a900473ffffffffffffffffffffffffffffffffffffffff169050816000806101000a81548173ffffffffffffffffffffffffffffffffffffffff021916908373ffffffffffffffffffffffffffffffffffffffff1602179055508173ffffffffffffffffffffffffffffffffffffffff168173ffffffffffffffffffffffffffffffffffffffff167f8be0079c531659141344cd1fd0a4f28419497f9722a3daafe3b4186f6b6457e060405160405180910390a35050565b600080fd5b600073ffffffffffffffffffffffffffffffffffffffff82169050919050565b6000620002ec82620002bf565b9050919050565b620002fe81620002df565b81146200030a57600080fd5b50565b6000815190506200031e81620002f3565b92915050565b600080604083850312156200033e576200033d620002ba565b5b60006200034e858286016200030d565b925050602062000361858286016200030d565b9150509250929050565b6200037681620002df565b82525050565b60006020820190506200039360008301846200036b565b92915050565b600082825260208201905092915050565b7f496e76616c696420746f6b656e20616464726573736573000000000000000000600082015250565b6000620003e260178362000399565b9150620003ef82620003aa565b602082019050919050565b600060208201905081810360008301526200041581620003d3565b9050919050565b611644806200042c6000396000f3fe608060405234801561001057600080fd5b50600436106100a95760003560e01c806391ac094c1161007157806391ac094c1461011a578063c107532914610138578063f2fde38b14610154578063f4eb08db14610170578063f5b2c2b21461018e578063fdb20ccb146101ac576100a9565b8063058702a1146100ae57806348c54b9d146100cc578063715018a6146100d65780638bf0af3e146100e05780638da5cb5b146100fc575b600080fd5b6100b66101df565b6040516100c39190610cd9565b60405180910390f35b6100d46101e5565b005b6100de6104ab565b005b6100fa60048036038101906100f59190610d25565b6104bf565b005b6101046107c1565b6040516101119190610da6565b60405180910390f35b6101226107ea565b60405161012f9190610e20565b60405180910390f35b610152600480360381019061014d9190610e67565b610810565b005b61016e60048036038101906101699190610ea7565b610a8b565b005b610178610b11565b6040516101859190610e20565b60405180910390f35b610196610b37565b6040516101a39190610cd9565b60405180910390f35b6101c660048036038101906101c19190610ea7565b610b3d565b6040516101d69493929190610ed4565b60405180910390f35b60045481565b6000600360003373ffffffffffffffffffffffffffffffffffffffff1673ffffffffffffffffffffffffffffffffffffffff1681526020019081526020016000209050600081600001541161026f576040517f08c379a000000000000000000000000000000000000000000000000000000000815260040161026690610f76565b60405180910390fd5b80600201544210156102b6576040517f08c379a00000000000000000000000000000000000000000000000000000000081526004016102ad90610fe2565b60405180910390fd5b60008160020154426102c89190611031565b9050600082600301548284600001546102e19190611065565b6102eb91906110d6565b9050826000015481116102fe5780610304565b82600001545b905060008360010154826103189190611031565b90506000811161035d576040517f08c379a000000000000000000000000000000000000000000000000000000000815260040161035490611153565b60405180910390fd5b808460010160008282546103719190611173565b92505081905550600160009054906101000a900473ffffffffffffffffffffffffffffffffffffffff1673ffffffffffffffffffffffffffffffffffffffff1663a9059cbb33836040518363ffffffff1660e01b81526004016103d59291906111a7565b6020604051808303816000875af11580156103f4573d6000803e3d6000fd5b505050506040513d601f19601f820116820180604052508101906104189190611208565b610457576040517f08c379a000000000000000000000000000000000000000000000000000000000815260040161044e90611281565b60405180910390fd5b3373ffffffffffffffffffffffffffffffffffffffff167f896e034966eaaf1adc54acc0f257056febbd300c9e47182cf761982cf1f5e4308260405161049d9190610cd9565b60405180910390a250505050565b6104b3610b6d565b6104bd6000610bf4565b565b60008211610502576040517f08c379a00000000000000000000000000000000000000000000000000000000081526004016104f9906112ed565b60405180910390fd5b60008111610545576040517f08c379a000000000000000000000000000000000000000000000000000000000815260040161053c90611359565b60405180910390fd5b600260009054906101000a900473ffffffffffffffffffffffffffffffffffffffff1673ffffffffffffffffffffffffffffffffffffffff166323b872dd3330856040518463ffffffff1660e01b81526004016105a493929190611379565b6020604051808303816000875af11580156105c3573d6000803e3d6000fd5b505050506040513d601f19601f820116820180604052508101906105e79190611208565b610626576040517f08c379a000000000000000000000000000000000000000000000000000000000815260040161061d906113fc565b60405180910390fd5b6000600360003373ffffffffffffffffffffffffffffffffffffffff1673ffffffffffffffffffffffffffffffffffffffff168152602001908152602001600020905060008160000154146106b0576040517f08c379a00000000000000000000000000000000000000000000000000000000081526004016106a790611468565b60405180910390fd5b60405180608001604052808481526020016000815260200142815260200183815250600360003373ffffffffffffffffffffffffffffffffffffffff1673ffffffffffffffffffffffffffffffffffffffff16815260200190815260200160002060008201518160000155602082015181600101556040820151816002015560608201518160030155905050826004600082825461074e9190611173565b9250508190555082600560008282546107679190611173565b925050819055503373ffffffffffffffffffffffffffffffffffffffff167f8f28852646c20cc973d3a8218f7eefed58c25c909f78f0265af4818c3d4dc271846040516107b49190610cd9565b60405180910390a2505050565b60008060009054906101000a900473ffffffffffffffffffffffffffffffffffffffff16905090565b600160009054906101000a900473ffffffffffffffffffffffffffffffffffffffff1681565b610818610b6d565b600073ffffffffffffffffffffffffffffffffffffffff168273ffffffffffffffffffffffffffffffffffffffff1603610887576040517f08c379a000000000000000000000000000000000000000000000000000000000815260040161087e906114d4565b60405180910390fd5b600081116108ca576040517f08c379a00000000000000000000000000000000000000000000000000000000081526004016108c1906112ed565b60405180910390fd5b80600260009054906101000a900473ffffffffffffffffffffffffffffffffffffffff1673ffffffffffffffffffffffffffffffffffffffff166370a08231306040518263ffffffff1660e01b81526004016109269190610da6565b602060405180830381865afa158015610943573d6000803e3d6000fd5b505050506040513d601f19601f820116820180604052508101906109679190611509565b10156109a8576040517f08c379a000000000000000000000000000000000000000000000000000000000815260040161099f90611582565b60405180910390fd5b600260009054906101000a900473ffffffffffffffffffffffffffffffffffffffff1673ffffffffffffffffffffffffffffffffffffffff1663a9059cbb83836040518363ffffffff1660e01b8152600401610a059291906111a7565b6020604051808303816000875af1158015610a24573d6000803e3d6000fd5b505050506040513d601f19601f82011682018060405250810190610a489190611208565b610a87576040517f08c379a0000000000000000000000000000000000000000000000000000000008152600401610a7e906115ee565b60405180910390fd5b5050565b610a93610b6d565b600073ffffffffffffffffffffffffffffffffffffffff168173ffffffffffffffffffffffffffffffffffffffff1603610b055760006040517f1e4fbdf7000000000000000000000000000000000000000000000000000000008152600401610afc9190610da6565b60405180910390fd5b610b0e81610bf4565b50565b600260009054906101000a900473ffffffffffffffffffffffffffffffffffffffff1681565b60055481565b60036020528060005260406000206000915090508060000154908060010154908060020154908060030154905084565b610b75610cb8565b73ffffffffffffffffffffffffffffffffffffffff16610b936107c1565b73ffffffffffffffffffffffffffffffffffffffff1614610bf257610bb6610cb8565b6040517f118cdaa7000000000000000000000000000000000000000000000000000000008152600401610be99190610da6565b60405180910390fd5b565b60008060009054906101000a900473ffffffffffffffffffffffffffffffffffffffff169050816000806101000a81548173ffffffffffffffffffffffffffffffffffffffff021916908373ffffffffffffffffffffffffffffffffffffffff1602179055508173ffffffffffffffffffffffffffffffffffffffff168173ffffffffffffffffffffffffffffffffffffffff167f8be0079c531659141344cd1fd0a4f28419497f9722a3daafe3b4186f6b6457e060405160405180910390a35050565b600033905090565b6000819050919050565b610cd381610cc0565b82525050565b6000602082019050610cee6000830184610cca565b92915050565b600080fd5b610d0281610cc0565b8114610d0d57600080fd5b50565b600081359050610d1f81610cf9565b92915050565b60008060408385031215610d3c57610d3b610cf4565b5b6000610d4a85828601610d10565b9250506020610d5b85828601610d10565b9150509250929050565b600073ffffffffffffffffffffffffffffffffffffffff82169050919050565b6000610d9082610d65565b9050919050565b610da081610d85565b82525050565b6000602082019050610dbb6000830184610d97565b92915050565b6000819050919050565b6000610de6610de1610ddc84610d65565b610dc1565b610d65565b9050919050565b6000610df882610dcb565b9050919050565b6000610e0a82610ded565b9050919050565b610e1a81610dff565b82525050565b6000602082019050610e356000830184610e11565b92915050565b610e4481610d85565b8114610e4f57600080fd5b50565b600081359050610e6181610e3b565b92915050565b60008060408385031215610e7e57610e7d610cf4565b5b6000610e8c85828601610e52565b9250506020610e9d85828601610d10565b9150509250929050565b600060208284031215610ebd57610ebc610cf4565b5b6000610ecb84828501610e52565b91505092915050565b6000608082019050610ee96000830187610cca565b610ef66020830186610cca565b610f036040830185610cca565b610f106060830184610cca565b95945050505050565b600082825260208201905092915050565b7f4e6f20746f6b656e7320746f20636c61696d0000000000000000000000000000600082015250565b6000610f60601283610f19565b9150610f6b82610f2a565b602082019050919050565b60006020820190508181036000830152610f8f81610f53565b9050919050565b7f56657374696e67206e6f74207374617274656400000000000000000000000000600082015250565b6000610fcc601383610f19565b9150610fd782610f96565b602082019050919050565b60006020820190508181036000830152610ffb81610fbf565b9050919050565b7f4e487b7100000000000000000000000000000000000000000000000000000000600052601160045260246000fd5b600061103c82610cc0565b915061104783610cc0565b925082820390508181111561105f5761105e611002565b5b92915050565b600061107082610cc0565b915061107b83610cc0565b925082820261108981610cc0565b915082820484148315176110a05761109f611002565b5b5092915050565b7f4e487b7100000000000000000000000000000000000000000000000000000000600052601260045260246000fd5b60006110e182610cc0565b91506110ec83610cc0565b9250826110fc576110fb6110a7565b5b828204905092915050565b7f4e6f20746f6b656e7320617661696c61626c6520666f7220636c61696d000000600082015250565b600061113d601d83610f19565b915061114882611107565b602082019050919050565b6000602082019050818103600083015261116c81611130565b9050919050565b600061117e82610cc0565b915061118983610cc0565b92508282019050808211156111a1576111a0611002565b5b92915050565b60006040820190506111bc6000830185610d97565b6111c96020830184610cca565b9392505050565b60008115159050919050565b6111e5816111d0565b81146111f057600080fd5b50565b600081519050611202816111dc565b92915050565b60006020828403121561121e5761121d610cf4565b5b600061122c848285016111f3565b91505092915050565b7f546f6b656e207472616e73666572206661696c65640000000000000000000000600082015250565b600061126b601583610f19565b915061127682611235565b602082019050919050565b6000602082019050818103600083015261129a8161125e565b9050919050565b7f416d6f756e74206d7573742062652067726561746572207468616e2030000000600082015250565b60006112d7601d83610f19565b91506112e2826112a1565b602082019050919050565b60006020820190508181036000830152611306816112ca565b9050919050565b7f56657374696e67206475726174696f6e206d7573742062652076616c69640000600082015250565b6000611343601e83610f19565b915061134e8261130d565b602082019050919050565b6000602082019050818103600083015261137281611336565b9050919050565b600060608201905061138e6000830186610d97565b61139b6020830185610d97565b6113a86040830184610cca565b949350505050565b7f5061796d656e74206661696c6564000000000000000000000000000000000000600082015250565b60006113e6600e83610f19565b91506113f1826113b0565b602082019050919050565b60006020820190508181036000830152611415816113d9565b9050919050565b7f56657374696e67207363686564756c6520616c72656164792065786973747300600082015250565b6000611452601f83610f19565b915061145d8261141c565b602082019050919050565b6000602082019050818103600083015261148181611445565b9050919050565b7f496e76616c696420616464726573730000000000000000000000000000000000600082015250565b60006114be600f83610f19565b91506114c982611488565b602082019050919050565b600060208201905081810360008301526114ed816114b1565b9050919050565b60008151905061150381610cf9565b92915050565b60006020828403121561151f5761151e610cf4565b5b600061152d848285016114f4565b91505092915050565b7f496e73756666696369656e742062616c616e6365000000000000000000000000600082015250565b600061156c601483610f19565b915061157782611536565b602082019050919050565b6000602082019050818103600083015261159b8161155f565b9050919050565b7f5769746864726177616c206661696c6564000000000000000000000000000000600082015250565b60006115d8601183610f19565b91506115e3826115a2565b602082019050919050565b60006020820190508181036000830152611607816115cb565b905091905056fea2646970667358221220933e5b8230bb7206eeb20ba239cbc95f3630f889b695a60064c1e5aab9f74f8164736f6c63430008140033",
  "linkReferences": {},
  "deployedLinkReferences": {}
}