{
  "_format": "hh-sol-artifact-1",
  "contractName": "PrimaryToken",
  "sourceName": "contracts/PrimaryToken.sol",
  "abi": [
    {
      "inputs": [
        {
          "internalType": "string",
          "name": "_name",
          "type": "string"
        },
        {
          "internalType": "string",
          "name": "_symbol",
          "type": "string"
        },
        {
          "internalType": "uint8",
          "name": "_decimalUnits",
          "type": "uint8"
        },
        {
          "internalType": "uint256",
          "name": "_initialSupply",
          "type": "uint256"
        }
      ],
      "stateMutability": "nonpayable",
      "type": "constructor"
    },
    {
      "inputs": [
        {
          "internalType": "address",
          "name": "spender",
          "type": "address"
        },
        {
          "internalType": "uint256",
          "name": "allowance",
          "type": "uint256"
        },
        {
          "internalType": "uint256",
          "name": "needed",
          "type": "uint256"
        }
      ],
      "name": "ERC20InsufficientAllowance",
      "type": "error"
    },
    {
      "inputs": [
        {
          "internalType": "address",
          "name": "sender",
          "type": "address"
        },
        {
          "internalType": "uint256",
          "name": "balance",
          "type": "uint256"
        },
        {
          "internalType": "uint256",
          "name": "needed",
          "type": "uint256"
        }
      ],
      "name": "ERC20InsufficientBalance",
      "type": "error"
    },
    {
      "inputs": [
        {
          "internalType": "address",
          "name": "approver",
          "type": "address"
        }
      ],
      "name": "ERC20InvalidApprover",
      "type": "error"
    },
    {
      "inputs": [
        {
          "internalType": "address",
          "name": "receiver",
          "type": "address"
        }
      ],
      "name": "ERC20InvalidReceiver",
      "type": "error"
    },
    {
      "inputs": [
        {
          "internalType": "address",
          "name": "sender",
          "type": "address"
        }
      ],
      "name": "ERC20InvalidSender",
      "type": "error"
    },
    {
      "inputs": [
        {
          "internalType": "address",
          "name": "spender",
          "type": "address"
        }
      ],
      "name": "ERC20InvalidSpender",
      "type": "error"
    },
    {
      "inputs": [
        {
          "internalType": "address",
          "name": "owner",
          "type": "address"
        }
      ],
      "name": "OwnableInvalidOwner",
      "type": "error"
    },
    {
      "inputs": [
        {
          "internalType": "address",
          "name": "account",
          "type": "address"
        }
      ],
      "name": "OwnableUnauthorizedAccount",
      "type": "error"
    },
    {
      "anonymous": false,
      "inputs": [
        {
          "indexed": true,
          "internalType": "address",
          "name": "owner",
          "type": "address"
        },
        {
          "indexed": true,
          "internalType": "address",
          "name": "spender",
          "type": "address"
        },
        {
          "indexed": false,
          "internalType": "uint256",
          "name": "value",
          "type": "uint256"
        }
      ],
      "name": "Approval",
      "type": "event"
    },
    {
      "anonymous": false,
      "inputs": [
        {
          "indexed": true,
          "internalType": "address",
          "name": "previousOwner",
          "type": "address"
        },
        {
          "indexed": true,
          "internalType": "address",
          "name": "newOwner",
          "type": "address"
        }
      ],
      "name": "OwnershipTransferred",
      "type": "event"
    },
    {
      "anonymous": false,
      "inputs": [
        {
          "indexed": true,
          "internalType": "address",
          "name": "from",
          "type": "address"
        },
        {
          "indexed": true,
          "internalType": "address",
          "name": "to",
          "type": "address"
        },
        {
          "indexed": false,
          "internalType": "uint256",
          "name": "value",
          "type": "uint256"
        }
      ],
      "name": "Transfer",
      "type": "event"
    },
    {
      "inputs": [
        {
          "internalType": "address",
          "name": "owner",
          "type": "address"
        },
        {
          "internalType": "address",
          "name": "spender",
          "type": "address"
        }
      ],
      "name": "allowance",
      "outputs": [
        {
          "internalType": "uint256",
          "name": "",
          "type": "uint256"
        }
      ],
      "stateMutability": "view",
      "type": "function"
    },
    {
      "inputs": [
        {
          "internalType": "address",
          "name": "spender",
          "type": "address"
        },
        {
          "internalType": "uint256",
          "name": "value",
          "type": "uint256"
        }
      ],
      "name": "approve",
      "outputs": [
        {
          "internalType": "bool",
          "name": "",
          "type": "bool"
        }
      ],
      "stateMutability": "nonpayable",
      "type": "function"
    },
    {
      "inputs": [
        {
          "internalType": "address",
          "name": "account",
          "type": "address"
        }
      ],
      "name": "balanceOf",
      "outputs": [
        {
          "internalType": "uint256",
          "name": "",
          "type": "uint256"
        }
      ],
      "stateMutability": "view",
      "type": "function"
    },
    {
      "inputs": [],
      "name": "decimals",
      "outputs": [
        {
          "internalType": "uint8",
          "name": "",
          "type": "uint8"
        }
      ],
      "stateMutability": "view",
      "type": "function"
    },
    {
      "inputs": [],
      "name": "name",
      "outputs": [
        {
          "internalType": "string",
          "name": "",
          "type": "string"
        }
      ],
      "stateMutability": "view",
      "type": "function"
    },
    {
      "inputs": [],
      "name": "owner",
      "outputs": [
        {
          "internalType": "address",
          "name": "",
          "type": "address"
        }
      ],
      "stateMutability": "view",
      "type": "function"
    },
    {
      "inputs": [],
      "name": "renounceOwnership",
      "outputs": [],
      "stateMutability": "nonpayable",
      "type": "function"
    },
    {
      "inputs": [],
      "name": "symbol",
      "outputs": [
        {
          "internalType": "string",
          "name": "",
          "type": "string"
        }
      ],
      "stateMutability": "view",
      "type": "function"
    },
    {
      "inputs": [],
      "name": "totalSupply",
      "outputs": [
        {
          "internalType": "uint256",
          "name": "",
          "type": "uint256"
        }
      ],
      "stateMutability": "view",
      "type": "function"
    },
    {
      "inputs": [
        {
          "internalType": "address",
          "name": "to",
          "type": "address"
        },
        {
          "internalType": "uint256",
          "name": "value",
          "type": "uint256"
        }
      ],
      "name": "transfer",
      "outputs": [
        {
          "internalType": "bool",
          "name": "",
          "type": "bool"
        }
      ],
      "stateMutability": "nonpayable",
      "type": "function"
    },
    {
      "inputs": [
        {
          "internalType": "address",
          "name": "from",
          "type": "address"
        },
        {
          "internalType": "address",
          "name": "to",
          "type": "address"
        },
        {
          "internalType": "uint256",
          "name": "value",
          "type": "uint256"
        }
      ],
      "name": "transferFrom",
      "outputs": [
        {
          "internalType": "bool",
          "name": "",
          "type": "bool"
        }
      ],
      "stateMutability": "nonpayable",
      "type": "function"
    },
    {
      "inputs": [
        {
          "internalType": "address",
          "name": "newOwner",
          "type": "address"
        }
      ],
      "name": "transferOwnership",
      "outputs": [],
      "stateMutability": "nonpayable",
      "type": "function"
    }
  ],
  "bytecode": "0x60a06040523480156200001157600080fd5b5060405162001ec438038062001ec48339818101604052810190620000379190620006be565b33848481600390816200004b9190620009af565b5080600490816200005d9190620009af565b505050600073ffffffffffffffffffffffffffffffffffffffff168173ffffffffffffffffffffffffffffffffffffffff1603620000d55760006040517f1e4fbdf7000000000000000000000000000000000000000000000000000000008152600401620000cc919062000adb565b60405180910390fd5b620000e6816200012f60201b60201c565b508160ff1660808160ff168152505062000125338360ff16600a6200010c919062000c7b565b8362000119919062000ccc565b620001f560201b60201c565b5050505062000dbd565b6000600560009054906101000a900473ffffffffffffffffffffffffffffffffffffffff16905081600560006101000a81548173ffffffffffffffffffffffffffffffffffffffff021916908373ffffffffffffffffffffffffffffffffffffffff1602179055508173ffffffffffffffffffffffffffffffffffffffff168173ffffffffffffffffffffffffffffffffffffffff167f8be0079c531659141344cd1fd0a4f28419497f9722a3daafe3b4186f6b6457e060405160405180910390a35050565b600073ffffffffffffffffffffffffffffffffffffffff168273ffffffffffffffffffffffffffffffffffffffff16036200026a5760006040517fec442f0500000000000000000000000000000000000000000000000000000000815260040162000261919062000adb565b60405180910390fd5b6200027e600083836200028260201b60201c565b5050565b600073ffffffffffffffffffffffffffffffffffffffff168373ffffffffffffffffffffffffffffffffffffffff1603620002d8578060026000828254620002cb919062000d17565b92505081905550620003ae565b60008060008573ffffffffffffffffffffffffffffffffffffffff1673ffffffffffffffffffffffffffffffffffffffff1681526020019081526020016000205490508181101562000367578381836040517fe450d38c0000000000000000000000000000000000000000000000000000000081526004016200035e9392919062000d63565b60405180910390fd5b8181036000808673ffffffffffffffffffffffffffffffffffffffff1673ffffffffffffffffffffffffffffffffffffffff16815260200190815260200160002081905550505b600073ffffffffffffffffffffffffffffffffffffffff168273ffffffffffffffffffffffffffffffffffffffff1603620003f9578060026000828254039250508190555062000446565b806000808473ffffffffffffffffffffffffffffffffffffffff1673ffffffffffffffffffffffffffffffffffffffff168152602001908152602001600020600082825401925050819055505b8173ffffffffffffffffffffffffffffffffffffffff168373ffffffffffffffffffffffffffffffffffffffff167fddf252ad1be2c89b69c2b068fc378daa952ba7f163c4a11628f55a4df523b3ef83604051620004a5919062000da0565b60405180910390a3505050565b6000604051905090565b600080fd5b600080fd5b600080fd5b600080fd5b6000601f19601f8301169050919050565b7f4e487b7100000000000000000000000000000000000000000000000000000000600052604160045260246000fd5b6200051b82620004d0565b810181811067ffffffffffffffff821117156200053d576200053c620004e1565b5b80604052505050565b600062000552620004b2565b905062000560828262000510565b919050565b600067ffffffffffffffff821115620005835762000582620004e1565b5b6200058e82620004d0565b9050602081019050919050565b60005b83811015620005bb5780820151818401526020810190506200059e565b60008484015250505050565b6000620005de620005d88462000565565b62000546565b905082815260208101848484011115620005fd57620005fc620004cb565b5b6200060a8482856200059b565b509392505050565b600082601f8301126200062a5762000629620004c6565b5b81516200063c848260208601620005c7565b91505092915050565b600060ff82169050919050565b6200065d8162000645565b81146200066957600080fd5b50565b6000815190506200067d8162000652565b92915050565b6000819050919050565b620006988162000683565b8114620006a457600080fd5b50565b600081519050620006b8816200068d565b92915050565b60008060008060808587031215620006db57620006da620004bc565b5b600085015167ffffffffffffffff811115620006fc57620006fb620004c1565b5b6200070a8782880162000612565b945050602085015167ffffffffffffffff8111156200072e576200072d620004c1565b5b6200073c8782880162000612565b93505060406200074f878288016200066c565b92505060606200076287828801620006a7565b91505092959194509250565b600081519050919050565b7f4e487b7100000000000000000000000000000000000000000000000000000000600052602260045260246000fd5b60006002820490506001821680620007c157607f821691505b602082108103620007d757620007d662000779565b5b50919050565b60008190508160005260206000209050919050565b60006020601f8301049050919050565b600082821b905092915050565b600060088302620008417fffffffffffffffffffffffffffffffffffffffffffffffffffffffffffffffff8262000802565b6200084d868362000802565b95508019841693508086168417925050509392505050565b6000819050919050565b6000620008906200088a620008848462000683565b62000865565b62000683565b9050919050565b6000819050919050565b620008ac836200086f565b620008c4620008bb8262000897565b8484546200080f565b825550505050565b600090565b620008db620008cc565b620008e8818484620008a1565b505050565b5b81811015620009105762000904600082620008d1565b600181019050620008ee565b5050565b601f8211156200095f576200092981620007dd565b6200093484620007f2565b8101602085101562000944578190505b6200095c6200095385620007f2565b830182620008ed565b50505b505050565b600082821c905092915050565b6000620009846000198460080262000964565b1980831691505092915050565b60006200099f838362000971565b9150826002028217905092915050565b620009ba826200076e565b67ffffffffffffffff811115620009d657620009d5620004e1565b5b620009e28254620007a8565b620009ef82828562000914565b600060209050601f83116001811462000a27576000841562000a12578287015190505b62000a1e858262000991565b86555062000a8e565b601f19841662000a3786620007dd565b60005b8281101562000a615784890151825560018201915060208501945060208101905062000a3a565b8683101562000a81578489015162000a7d601f89168262000971565b8355505b6001600288020188555050505b505050505050565b600073ffffffffffffffffffffffffffffffffffffffff82169050919050565b600062000ac38262000a96565b9050919050565b62000ad58162000ab6565b82525050565b600060208201905062000af2600083018462000aca565b92915050565b7f4e487b7100000000000000000000000000000000000000000000000000000000600052601160045260246000fd5b60008160011c9050919050565b6000808291508390505b600185111562000b865780860481111562000b5e5762000b5d62000af8565b5b600185161562000b6e5780820291505b808102905062000b7e8562000b27565b945062000b3e565b94509492505050565b60008262000ba1576001905062000c74565b8162000bb1576000905062000c74565b816001811462000bca576002811462000bd55762000c0b565b600191505062000c74565b60ff84111562000bea5762000be962000af8565b5b8360020a91508482111562000c045762000c0362000af8565b5b5062000c74565b5060208310610133831016604e8410600b841016171562000c455782820a90508381111562000c3f5762000c3e62000af8565b5b62000c74565b62000c54848484600162000b34565b9250905081840481111562000c6e5762000c6d62000af8565b5b81810290505b9392505050565b600062000c888262000683565b915062000c958362000683565b925062000cc47fffffffffffffffffffffffffffffffffffffffffffffffffffffffffffffffff848462000b8f565b905092915050565b600062000cd98262000683565b915062000ce68362000683565b925082820262000cf68162000683565b9150828204841483151762000d105762000d0f62000af8565b5b5092915050565b600062000d248262000683565b915062000d318362000683565b925082820190508082111562000d4c5762000d4b62000af8565b5b92915050565b62000d5d8162000683565b82525050565b600060608201905062000d7a600083018662000aca565b62000d89602083018562000d52565b62000d98604083018462000d52565b949350505050565b600060208201905062000db7600083018462000d52565b92915050565b6080516110eb62000dd9600039600061035701526110eb6000f3fe608060405234801561001057600080fd5b50600436106100b45760003560e01c8063715018a611610071578063715018a6146101a35780638da5cb5b146101ad57806395d89b41146101cb578063a9059cbb146101e9578063dd62ed3e14610219578063f2fde38b14610249576100b4565b806306fdde03146100b9578063095ea7b3146100d757806318160ddd1461010757806323b872dd14610125578063313ce5671461015557806370a0823114610173575b600080fd5b6100c1610265565b6040516100ce9190610d3f565b60405180910390f35b6100f160048036038101906100ec9190610dfa565b6102f7565b6040516100fe9190610e55565b60405180910390f35b61010f61031a565b60405161011c9190610e7f565b60405180910390f35b61013f600480360381019061013a9190610e9a565b610324565b60405161014c9190610e55565b60405180910390f35b61015d610353565b60405161016a9190610f09565b60405180910390f35b61018d60048036038101906101889190610f24565b61037b565b60405161019a9190610e7f565b60405180910390f35b6101ab6103c3565b005b6101b56103d7565b6040516101c29190610f60565b60405180910390f35b6101d3610401565b6040516101e09190610d3f565b60405180910390f35b61020360048036038101906101fe9190610dfa565b610493565b6040516102109190610e55565b60405180910390f35b610233600480360381019061022e9190610f7b565b6104b6565b6040516102409190610e7f565b60405180910390f35b610263600480360381019061025e9190610f24565b61053d565b005b60606003805461027490610fea565b80601f01602080910402602001604051908101604052809291908181526020018280546102a090610fea565b80156102ed5780601f106102c2576101008083540402835291602001916102ed565b820191906000526020600020905b8154815290600101906020018083116102d057829003601f168201915b5050505050905090565b6000806103026105c3565b905061030f8185856105cb565b600191505092915050565b6000600254905090565b60008061032f6105c3565b905061033c8582856105dd565b610347858585610672565b60019150509392505050565b60007f0000000000000000000000000000000000000000000000000000000000000000905090565b60008060008373ffffffffffffffffffffffffffffffffffffffff1673ffffffffffffffffffffffffffffffffffffffff168152602001908152602001600020549050919050565b6103cb610766565b6103d560006107ed565b565b6000600560009054906101000a900473ffffffffffffffffffffffffffffffffffffffff16905090565b60606004805461041090610fea565b80601f016020809104026020016040519081016040528092919081815260200182805461043c90610fea565b80156104895780601f1061045e57610100808354040283529160200191610489565b820191906000526020600020905b81548152906001019060200180831161046c57829003601f168201915b5050505050905090565b60008061049e6105c3565b90506104ab818585610672565b600191505092915050565b6000600160008473ffffffffffffffffffffffffffffffffffffffff1673ffffffffffffffffffffffffffffffffffffffff16815260200190815260200160002060008373ffffffffffffffffffffffffffffffffffffffff1673ffffffffffffffffffffffffffffffffffffffff16815260200190815260200160002054905092915050565b610545610766565b600073ffffffffffffffffffffffffffffffffffffffff168173ffffffffffffffffffffffffffffffffffffffff16036105b75760006040517f1e4fbdf70000000000000000000000000000000000000000000000000000000081526004016105ae9190610f60565b60405180910390fd5b6105c0816107ed565b50565b600033905090565b6105d883838360016108b3565b505050565b60006105e984846104b6565b90507fffffffffffffffffffffffffffffffffffffffffffffffffffffffffffffffff81101561066c578181101561065c578281836040517ffb8f41b20000000000000000000000000000000000000000000000000000000081526004016106539392919061101b565b60405180910390fd5b61066b848484840360006108b3565b5b50505050565b600073ffffffffffffffffffffffffffffffffffffffff168373ffffffffffffffffffffffffffffffffffffffff16036106e45760006040517f96c6fd1e0000000000000000000000000000000000000000000000000000000081526004016106db9190610f60565b60405180910390fd5b600073ffffffffffffffffffffffffffffffffffffffff168273ffffffffffffffffffffffffffffffffffffffff16036107565760006040517fec442f0500000000000000000000000000000000000000000000000000000000815260040161074d9190610f60565b60405180910390fd5b610761838383610a8a565b505050565b61076e6105c3565b73ffffffffffffffffffffffffffffffffffffffff1661078c6103d7565b73ffffffffffffffffffffffffffffffffffffffff16146107eb576107af6105c3565b6040517f118cdaa70000000000000000000000000000000000000000000000000000000081526004016107e29190610f60565b60405180910390fd5b565b6000600560009054906101000a900473ffffffffffffffffffffffffffffffffffffffff16905081600560006101000a81548173ffffffffffffffffffffffffffffffffffffffff021916908373ffffffffffffffffffffffffffffffffffffffff1602179055508173ffffffffffffffffffffffffffffffffffffffff168173ffffffffffffffffffffffffffffffffffffffff167f8be0079c531659141344cd1fd0a4f28419497f9722a3daafe3b4186f6b6457e060405160405180910390a35050565b600073ffffffffffffffffffffffffffffffffffffffff168473ffffffffffffffffffffffffffffffffffffffff16036109255760006040517fe602df0500000000000000000000000000000000000000000000000000000000815260040161091c9190610f60565b60405180910390fd5b600073ffffffffffffffffffffffffffffffffffffffff168373ffffffffffffffffffffffffffffffffffffffff16036109975760006040517f94280d6200000000000000000000000000000000000000000000000000000000815260040161098e9190610f60565b60405180910390fd5b81600160008673ffffffffffffffffffffffffffffffffffffffff1673ffffffffffffffffffffffffffffffffffffffff16815260200190815260200160002060008573ffffffffffffffffffffffffffffffffffffffff1673ffffffffffffffffffffffffffffffffffffffff168152602001908152602001600020819055508015610a84578273ffffffffffffffffffffffffffffffffffffffff168473ffffffffffffffffffffffffffffffffffffffff167f8c5be1e5ebec7d5bd14f71427d1e84f3dd0314c0f7b2291e5b200ac8c7c3b92584604051610a7b9190610e7f565b60405180910390a35b50505050565b600073ffffffffffffffffffffffffffffffffffffffff168373ffffffffffffffffffffffffffffffffffffffff1603610adc578060026000828254610ad09190611081565b92505081905550610baf565b60008060008573ffffffffffffffffffffffffffffffffffffffff1673ffffffffffffffffffffffffffffffffffffffff16815260200190815260200160002054905081811015610b68578381836040517fe450d38c000000000000000000000000000000000000000000000000000000008152600401610b5f9392919061101b565b60405180910390fd5b8181036000808673ffffffffffffffffffffffffffffffffffffffff1673ffffffffffffffffffffffffffffffffffffffff16815260200190815260200160002081905550505b600073ffffffffffffffffffffffffffffffffffffffff168273ffffffffffffffffffffffffffffffffffffffff1603610bf85780600260008282540392505081905550610c45565b806000808473ffffffffffffffffffffffffffffffffffffffff1673ffffffffffffffffffffffffffffffffffffffff168152602001908152602001600020600082825401925050819055505b8173ffffffffffffffffffffffffffffffffffffffff168373ffffffffffffffffffffffffffffffffffffffff167fddf252ad1be2c89b69c2b068fc378daa952ba7f163c4a11628f55a4df523b3ef83604051610ca29190610e7f565b60405180910390a3505050565b600081519050919050565b600082825260208201905092915050565b60005b83811015610ce9578082015181840152602081019050610cce565b60008484015250505050565b6000601f19601f8301169050919050565b6000610d1182610caf565b610d1b8185610cba565b9350610d2b818560208601610ccb565b610d3481610cf5565b840191505092915050565b60006020820190508181036000830152610d598184610d06565b905092915050565b600080fd5b600073ffffffffffffffffffffffffffffffffffffffff82169050919050565b6000610d9182610d66565b9050919050565b610da181610d86565b8114610dac57600080fd5b50565b600081359050610dbe81610d98565b92915050565b6000819050919050565b610dd781610dc4565b8114610de257600080fd5b50565b600081359050610df481610dce565b92915050565b60008060408385031215610e1157610e10610d61565b5b6000610e1f85828601610daf565b9250506020610e3085828601610de5565b9150509250929050565b60008115159050919050565b610e4f81610e3a565b82525050565b6000602082019050610e6a6000830184610e46565b92915050565b610e7981610dc4565b82525050565b6000602082019050610e946000830184610e70565b92915050565b600080600060608486031215610eb357610eb2610d61565b5b6000610ec186828701610daf565b9350506020610ed286828701610daf565b9250506040610ee386828701610de5565b9150509250925092565b600060ff82169050919050565b610f0381610eed565b82525050565b6000602082019050610f1e6000830184610efa565b92915050565b600060208284031215610f3a57610f39610d61565b5b6000610f4884828501610daf565b91505092915050565b610f5a81610d86565b82525050565b6000602082019050610f756000830184610f51565b92915050565b60008060408385031215610f9257610f91610d61565b5b6000610fa085828601610daf565b9250506020610fb185828601610daf565b9150509250929050565b7f4e487b7100000000000000000000000000000000000000000000000000000000600052602260045260246000fd5b6000600282049050600182168061100257607f821691505b60208210810361101557611014610fbb565b5b50919050565b60006060820190506110306000830186610f51565b61103d6020830185610e70565b61104a6040830184610e70565b949350505050565b7f4e487b7100000000000000000000000000000000000000000000000000000000600052601160045260246000fd5b600061108c82610dc4565b915061109783610dc4565b92508282019050808211156110af576110ae611052565b5b9291505056fea26469706673582212200c5bea7b3cb89145e27de2b3d314f1600a3335a20dd0ec99bddcbc64e214f36064736f6c63430008140033",
  "linkReferences": {},
  "deployedLinkReferences": {}
}