{
  "_format": "hh-sol-artifact-1",
  "contractName": "SecondaryToken",
  "sourceName": "contracts/SecondaryToken.sol",
  "abi": [
    {
      "inputs": [
        {
          "internalType": "string",
          "name": "_name",
          "type": "string"
        },
        {
          "internalType": "string",
          "name": "_symbol",
          "type": "string"
        },
        {
          "internalType": "address",
          "name": "_primaryTokenAddress",
          "type": "address"
        },
        {
          "internalType": "uint256",
          "name": "_initialSupply",
          "type": "uint256"
        }
      ],
      "stateMutability": "nonpayable",
      "type": "constructor"
    },
    {
      "inputs": [
        {
          "internalType": "address",
          "name": "spender",
          "type": "address"
        },
        {
          "internalType": "uint256",
          "name": "allowance",
          "type": "uint256"
        },
        {
          "internalType": "uint256",
          "name": "needed",
          "type": "uint256"
        }
      ],
      "name": "ERC20InsufficientAllowance",
      "type": "error"
    },
    {
      "inputs": [
        {
          "internalType": "address",
          "name": "sender",
          "type": "address"
        },
        {
          "internalType": "uint256",
          "name": "balance",
          "type": "uint256"
        },
        {
          "internalType": "uint256",
          "name": "needed",
          "type": "uint256"
        }
      ],
      "name": "ERC20InsufficientBalance",
      "type": "error"
    },
    {
      "inputs": [
        {
          "internalType": "address",
          "name": "approver",
          "type": "address"
        }
      ],
      "name": "ERC20InvalidApprover",
      "type": "error"
    },
    {
      "inputs": [
        {
          "internalType": "address",
          "name": "receiver",
          "type": "address"
        }
      ],
      "name": "ERC20InvalidReceiver",
      "type": "error"
    },
    {
      "inputs": [
        {
          "internalType": "address",
          "name": "sender",
          "type": "address"
        }
      ],
      "name": "ERC20InvalidSender",
      "type": "error"
    },
    {
      "inputs": [
        {
          "internalType": "address",
          "name": "spender",
          "type": "address"
        }
      ],
      "name": "ERC20InvalidSpender",
      "type": "error"
    },
    {
      "inputs": [
        {
          "internalType": "address",
          "name": "owner",
          "type": "address"
        }
      ],
      "name": "OwnableInvalidOwner",
      "type": "error"
    },
    {
      "inputs": [
        {
          "internalType": "address",
          "name": "account",
          "type": "address"
        }
      ],
      "name": "OwnableUnauthorizedAccount",
      "type": "error"
    },
    {
      "anonymous": false,
      "inputs": [
        {
          "indexed": true,
          "internalType": "address",
          "name": "owner",
          "type": "address"
        },
        {
          "indexed": true,
          "internalType": "address",
          "name": "spender",
          "type": "address"
        },
        {
          "indexed": false,
          "internalType": "uint256",
          "name": "value",
          "type": "uint256"
        }
      ],
      "name": "Approval",
      "type": "event"
    },
    {
      "anonymous": false,
      "inputs": [
        {
          "indexed": true,
          "internalType": "address",
          "name": "previousOwner",
          "type": "address"
        },
        {
          "indexed": true,
          "internalType": "address",
          "name": "newOwner",
          "type": "address"
        }
      ],
      "name": "OwnershipTransferred",
      "type": "event"
    },
    {
      "anonymous": false,
      "inputs": [
        {
          "indexed": true,
          "internalType": "address",
          "name": "from",
          "type": "address"
        },
        {
          "indexed": true,
          "internalType": "address",
          "name": "to",
          "type": "address"
        },
        {
          "indexed": false,
          "internalType": "uint256",
          "name": "value",
          "type": "uint256"
        }
      ],
      "name": "Transfer",
      "type": "event"
    },
    {
      "inputs": [
        {
          "internalType": "address",
          "name": "owner",
          "type": "address"
        },
        {
          "internalType": "address",
          "name": "spender",
          "type": "address"
        }
      ],
      "name": "allowance",
      "outputs": [
        {
          "internalType": "uint256",
          "name": "",
          "type": "uint256"
        }
      ],
      "stateMutability": "view",
      "type": "function"
    },
    {
      "inputs": [
        {
          "internalType": "address",
          "name": "spender",
          "type": "address"
        },
        {
          "internalType": "uint256",
          "name": "value",
          "type": "uint256"
        }
      ],
      "name": "approve",
      "outputs": [
        {
          "internalType": "bool",
          "name": "",
          "type": "bool"
        }
      ],
      "stateMutability": "nonpayable",
      "type": "function"
    },
    {
      "inputs": [
        {
          "internalType": "address",
          "name": "account",
          "type": "address"
        }
      ],
      "name": "balanceOf",
      "outputs": [
        {
          "internalType": "uint256",
          "name": "",
          "type": "uint256"
        }
      ],
      "stateMutability": "view",
      "type": "function"
    },
    {
      "inputs": [],
      "name": "decimals",
      "outputs": [
        {
          "internalType": "uint8",
          "name": "",
          "type": "uint8"
        }
      ],
      "stateMutability": "view",
      "type": "function"
    },
    {
      "inputs": [],
      "name": "name",
      "outputs": [
        {
          "internalType": "string",
          "name": "",
          "type": "string"
        }
      ],
      "stateMutability": "view",
      "type": "function"
    },
    {
      "inputs": [],
      "name": "owner",
      "outputs": [
        {
          "internalType": "address",
          "name": "",
          "type": "address"
        }
      ],
      "stateMutability": "view",
      "type": "function"
    },
    {
      "inputs": [],
      "name": "primaryToken",
      "outputs": [
        {
          "internalType": "contract IPrimaryToken",
          "name": "",
          "type": "address"
        }
      ],
      "stateMutability": "view",
      "type": "function"
    },
    {
      "inputs": [],
      "name": "renounceOwnership",
      "outputs": [],
      "stateMutability": "nonpayable",
      "type": "function"
    },
    {
      "inputs": [],
      "name": "symbol",
      "outputs": [
        {
          "internalType": "string",
          "name": "",
          "type": "string"
        }
      ],
      "stateMutability": "view",
      "type": "function"
    },
    {
      "inputs": [],
      "name": "totalSupply",
      "outputs": [
        {
          "internalType": "uint256",
          "name": "",
          "type": "uint256"
        }
      ],
      "stateMutability": "view",
      "type": "function"
    },
    {
      "inputs": [
        {
          "internalType": "address",
          "name": "to",
          "type": "address"
        },
        {
          "internalType": "uint256",
          "name": "value",
          "type": "uint256"
        }
      ],
      "name": "transfer",
      "outputs": [
        {
          "internalType": "bool",
          "name": "",
          "type": "bool"
        }
      ],
      "stateMutability": "nonpayable",
      "type": "function"
    },
    {
      "inputs": [
        {
          "internalType": "address",
          "name": "from",
          "type": "address"
        },
        {
          "internalType": "address",
          "name": "to",
          "type": "address"
        },
        {
          "internalType": "uint256",
          "name": "value",
          "type": "uint256"
        }
      ],
      "name": "transferFrom",
      "outputs": [
        {
          "internalType": "bool",
          "name": "",
          "type": "bool"
        }
      ],
      "stateMutability": "nonpayable",
      "type": "function"
    },
    {
      "inputs": [
        {
          "internalType": "address",
          "name": "newOwner",
          "type": "address"
        }
      ],
      "name": "transferOwnership",
      "outputs": [],
      "stateMutability": "nonpayable",
      "type": "function"
    },
    {
      "inputs": [
        {
          "internalType": "address",
          "name": "_newPrimaryToken",
          "type": "address"
        }
      ],
      "name": "updatePrimaryToken",
      "outputs": [],
      "stateMutability": "nonpayable",
      "type": "function"
    }
  ],
  "bytecode": "0x60a06040523480156200001157600080fd5b50604051620023293803806200232983398181016040528101906200003791906200082d565b33848481600390816200004b919062000b1e565b5080600490816200005d919062000b1e565b505050600073ffffffffffffffffffffffffffffffffffffffff168173ffffffffffffffffffffffffffffffffffffffff1603620000d55760006040517f1e4fbdf7000000000000000000000000000000000000000000000000000000008152600401620000cc919062000c16565b60405180910390fd5b620000e6816200027760201b60201c565b50600073ffffffffffffffffffffffffffffffffffffffff168273ffffffffffffffffffffffffffffffffffffffff160362000159576040517f08c379a0000000000000000000000000000000000000000000000000000000008152600401620001509062000c94565b60405180910390fd5b81600660006101000a81548173ffffffffffffffffffffffffffffffffffffffff021916908373ffffffffffffffffffffffffffffffffffffffff160217905550600660009054906101000a900473ffffffffffffffffffffffffffffffffffffffff1673ffffffffffffffffffffffffffffffffffffffff1663313ce5676040518163ffffffff1660e01b8152600401602060405180830381865afa15801562000208573d6000803e3d6000fd5b505050506040513d601f19601f820116820180604052508101906200022e919062000cf4565b60ff1660808160ff16815250506200026d3360805160ff16600a62000254919062000ea9565b8362000261919062000efa565b6200033d60201b60201c565b5050505062000feb565b6000600560009054906101000a900473ffffffffffffffffffffffffffffffffffffffff16905081600560006101000a81548173ffffffffffffffffffffffffffffffffffffffff021916908373ffffffffffffffffffffffffffffffffffffffff1602179055508173ffffffffffffffffffffffffffffffffffffffff168173ffffffffffffffffffffffffffffffffffffffff167f8be0079c531659141344cd1fd0a4f28419497f9722a3daafe3b4186f6b6457e060405160405180910390a35050565b600073ffffffffffffffffffffffffffffffffffffffff168273ffffffffffffffffffffffffffffffffffffffff1603620003b25760006040517fec442f05000000000000000000000000000000000000000000000000000000008152600401620003a9919062000c16565b60405180910390fd5b620003c660008383620003ca60201b60201c565b5050565b600073ffffffffffffffffffffffffffffffffffffffff168373ffffffffffffffffffffffffffffffffffffffff16036200042057806002600082825462000413919062000f45565b92505081905550620004f6565b60008060008573ffffffffffffffffffffffffffffffffffffffff1673ffffffffffffffffffffffffffffffffffffffff16815260200190815260200160002054905081811015620004af578381836040517fe450d38c000000000000000000000000000000000000000000000000000000008152600401620004a69392919062000f91565b60405180910390fd5b8181036000808673ffffffffffffffffffffffffffffffffffffffff1673ffffffffffffffffffffffffffffffffffffffff16815260200190815260200160002081905550505b600073ffffffffffffffffffffffffffffffffffffffff168273ffffffffffffffffffffffffffffffffffffffff16036200054157806002600082825403925050819055506200058e565b806000808473ffffffffffffffffffffffffffffffffffffffff1673ffffffffffffffffffffffffffffffffffffffff168152602001908152602001600020600082825401925050819055505b8173ffffffffffffffffffffffffffffffffffffffff168373ffffffffffffffffffffffffffffffffffffffff167fddf252ad1be2c89b69c2b068fc378daa952ba7f163c4a11628f55a4df523b3ef83604051620005ed919062000fce565b60405180910390a3505050565b6000604051905090565b600080fd5b600080fd5b600080fd5b600080fd5b6000601f19601f8301169050919050565b7f4e487b7100000000000000000000000000000000000000000000000000000000600052604160045260246000fd5b620006638262000618565b810181811067ffffffffffffffff8211171562000685576200068462000629565b5b80604052505050565b60006200069a620005fa565b9050620006a8828262000658565b919050565b600067ffffffffffffffff821115620006cb57620006ca62000629565b5b620006d68262000618565b9050602081019050919050565b60005b8381101562000703578082015181840152602081019050620006e6565b60008484015250505050565b6000620007266200072084620006ad565b6200068e565b90508281526020810184848401111562000745576200074462000613565b5b62000752848285620006e3565b509392505050565b600082601f8301126200077257620007716200060e565b5b8151620007848482602086016200070f565b91505092915050565b600073ffffffffffffffffffffffffffffffffffffffff82169050919050565b6000620007ba826200078d565b9050919050565b620007cc81620007ad565b8114620007d857600080fd5b50565b600081519050620007ec81620007c1565b92915050565b6000819050919050565b6200080781620007f2565b81146200081357600080fd5b50565b6000815190506200082781620007fc565b92915050565b600080600080608085870312156200084a576200084962000604565b5b600085015167ffffffffffffffff8111156200086b576200086a62000609565b5b62000879878288016200075a565b945050602085015167ffffffffffffffff8111156200089d576200089c62000609565b5b620008ab878288016200075a565b9350506040620008be87828801620007db565b9250506060620008d18782880162000816565b91505092959194509250565b600081519050919050565b7f4e487b7100000000000000000000000000000000000000000000000000000000600052602260045260246000fd5b600060028204905060018216806200093057607f821691505b602082108103620009465762000945620008e8565b5b50919050565b60008190508160005260206000209050919050565b60006020601f8301049050919050565b600082821b905092915050565b600060088302620009b07fffffffffffffffffffffffffffffffffffffffffffffffffffffffffffffffff8262000971565b620009bc868362000971565b95508019841693508086168417925050509392505050565b6000819050919050565b6000620009ff620009f9620009f384620007f2565b620009d4565b620007f2565b9050919050565b6000819050919050565b62000a1b83620009de565b62000a3362000a2a8262000a06565b8484546200097e565b825550505050565b600090565b62000a4a62000a3b565b62000a5781848462000a10565b505050565b5b8181101562000a7f5762000a7360008262000a40565b60018101905062000a5d565b5050565b601f82111562000ace5762000a98816200094c565b62000aa38462000961565b8101602085101562000ab3578190505b62000acb62000ac28562000961565b83018262000a5c565b50505b505050565b600082821c905092915050565b600062000af36000198460080262000ad3565b1980831691505092915050565b600062000b0e838362000ae0565b9150826002028217905092915050565b62000b2982620008dd565b67ffffffffffffffff81111562000b455762000b4462000629565b5b62000b51825462000917565b62000b5e82828562000a83565b600060209050601f83116001811462000b96576000841562000b81578287015190505b62000b8d858262000b00565b86555062000bfd565b601f19841662000ba6866200094c565b60005b8281101562000bd05784890151825560018201915060208501945060208101905062000ba9565b8683101562000bf0578489015162000bec601f89168262000ae0565b8355505b6001600288020188555050505b505050505050565b62000c1081620007ad565b82525050565b600060208201905062000c2d600083018462000c05565b92915050565b600082825260208201905092915050565b7f496e76616c6964207072696d61727920746f6b656e2061646472657373000000600082015250565b600062000c7c601d8362000c33565b915062000c898262000c44565b602082019050919050565b6000602082019050818103600083015262000caf8162000c6d565b9050919050565b600060ff82169050919050565b62000cce8162000cb6565b811462000cda57600080fd5b50565b60008151905062000cee8162000cc3565b92915050565b60006020828403121562000d0d5762000d0c62000604565b5b600062000d1d8482850162000cdd565b91505092915050565b7f4e487b7100000000000000000000000000000000000000000000000000000000600052601160045260246000fd5b60008160011c9050919050565b6000808291508390505b600185111562000db45780860481111562000d8c5762000d8b62000d26565b5b600185161562000d9c5780820291505b808102905062000dac8562000d55565b945062000d6c565b94509492505050565b60008262000dcf576001905062000ea2565b8162000ddf576000905062000ea2565b816001811462000df8576002811462000e035762000e39565b600191505062000ea2565b60ff84111562000e185762000e1762000d26565b5b8360020a91508482111562000e325762000e3162000d26565b5b5062000ea2565b5060208310610133831016604e8410600b841016171562000e735782820a90508381111562000e6d5762000e6c62000d26565b5b62000ea2565b62000e82848484600162000d62565b9250905081840481111562000e9c5762000e9b62000d26565b5b81810290505b9392505050565b600062000eb682620007f2565b915062000ec383620007f2565b925062000ef27fffffffffffffffffffffffffffffffffffffffffffffffffffffffffffffffff848462000dbd565b905092915050565b600062000f0782620007f2565b915062000f1483620007f2565b925082820262000f2481620007f2565b9150828204841483151762000f3e5762000f3d62000d26565b5b5092915050565b600062000f5282620007f2565b915062000f5f83620007f2565b925082820190508082111562000f7a5762000f7962000d26565b5b92915050565b62000f8b81620007f2565b82525050565b600060608201905062000fa8600083018662000c05565b62000fb7602083018562000f80565b62000fc6604083018462000f80565b949350505050565b600060208201905062000fe5600083018462000f80565b92915050565b60805161132262001007600039600061048201526113226000f3fe608060405234801561001057600080fd5b50600436106100ea5760003560e01c8063715018a61161008c57806395d89b411161006657806395d89b411461023b578063a9059cbb14610259578063dd62ed3e14610289578063f2fde38b146102b9576100ea565b8063715018a6146101f55780638da5cb5b146101ff57806391ac094c1461021d576100ea565b806323b872dd116100c857806323b872dd1461015b5780632d4f18731461018b578063313ce567146101a757806370a08231146101c5576100ea565b806306fdde03146100ef578063095ea7b31461010d57806318160ddd1461013d575b600080fd5b6100f76102d5565b6040516101049190610e90565b60405180910390f35b61012760048036038101906101229190610f4b565b610367565b6040516101349190610fa6565b60405180910390f35b61014561038a565b6040516101529190610fd0565b60405180910390f35b61017560048036038101906101709190610feb565b610394565b6040516101829190610fa6565b60405180910390f35b6101a560048036038101906101a0919061103e565b6103c3565b005b6101af61047e565b6040516101bc9190611087565b60405180910390f35b6101df60048036038101906101da919061103e565b6104a6565b6040516101ec9190610fd0565b60405180910390f35b6101fd6104ee565b005b610207610502565b60405161021491906110b1565b60405180910390f35b61022561052c565b604051610232919061112b565b60405180910390f35b610243610552565b6040516102509190610e90565b60405180910390f35b610273600480360381019061026e9190610f4b565b6105e4565b6040516102809190610fa6565b60405180910390f35b6102a3600480360381019061029e9190611146565b610607565b6040516102b09190610fd0565b60405180910390f35b6102d360048036038101906102ce919061103e565b61068e565b005b6060600380546102e4906111b5565b80601f0160208091040260200160405190810160405280929190818152602001828054610310906111b5565b801561035d5780601f106103325761010080835404028352916020019161035d565b820191906000526020600020905b81548152906001019060200180831161034057829003601f168201915b5050505050905090565b600080610372610714565b905061037f81858561071c565b600191505092915050565b6000600254905090565b60008061039f610714565b90506103ac85828561072e565b6103b78585856107c3565b60019150509392505050565b6103cb6108b7565b600073ffffffffffffffffffffffffffffffffffffffff168173ffffffffffffffffffffffffffffffffffffffff160361043a576040517f08c379a000000000000000000000000000000000000000000000000000000000815260040161043190611232565b60405180910390fd5b80600660006101000a81548173ffffffffffffffffffffffffffffffffffffffff021916908373ffffffffffffffffffffffffffffffffffffffff16021790555050565b60007f0000000000000000000000000000000000000000000000000000000000000000905090565b60008060008373ffffffffffffffffffffffffffffffffffffffff1673ffffffffffffffffffffffffffffffffffffffff168152602001908152602001600020549050919050565b6104f66108b7565b610500600061093e565b565b6000600560009054906101000a900473ffffffffffffffffffffffffffffffffffffffff16905090565b600660009054906101000a900473ffffffffffffffffffffffffffffffffffffffff1681565b606060048054610561906111b5565b80601f016020809104026020016040519081016040528092919081815260200182805461058d906111b5565b80156105da5780601f106105af576101008083540402835291602001916105da565b820191906000526020600020905b8154815290600101906020018083116105bd57829003601f168201915b5050505050905090565b6000806105ef610714565b90506105fc8185856107c3565b600191505092915050565b6000600160008473ffffffffffffffffffffffffffffffffffffffff1673ffffffffffffffffffffffffffffffffffffffff16815260200190815260200160002060008373ffffffffffffffffffffffffffffffffffffffff1673ffffffffffffffffffffffffffffffffffffffff16815260200190815260200160002054905092915050565b6106966108b7565b600073ffffffffffffffffffffffffffffffffffffffff168173ffffffffffffffffffffffffffffffffffffffff16036107085760006040517f1e4fbdf70000000000000000000000000000000000000000000000000000000081526004016106ff91906110b1565b60405180910390fd5b6107118161093e565b50565b600033905090565b6107298383836001610a04565b505050565b600061073a8484610607565b90507fffffffffffffffffffffffffffffffffffffffffffffffffffffffffffffffff8110156107bd57818110156107ad578281836040517ffb8f41b20000000000000000000000000000000000000000000000000000000081526004016107a493929190611252565b60405180910390fd5b6107bc84848484036000610a04565b5b50505050565b600073ffffffffffffffffffffffffffffffffffffffff168373ffffffffffffffffffffffffffffffffffffffff16036108355760006040517f96c6fd1e00000000000000000000000000000000000000000000000000000000815260040161082c91906110b1565b60405180910390fd5b600073ffffffffffffffffffffffffffffffffffffffff168273ffffffffffffffffffffffffffffffffffffffff16036108a75760006040517fec442f0500000000000000000000000000000000000000000000000000000000815260040161089e91906110b1565b60405180910390fd5b6108b2838383610bdb565b505050565b6108bf610714565b73ffffffffffffffffffffffffffffffffffffffff166108dd610502565b73ffffffffffffffffffffffffffffffffffffffff161461093c57610900610714565b6040517f118cdaa700000000000000000000000000000000000000000000000000000000815260040161093391906110b1565b60405180910390fd5b565b6000600560009054906101000a900473ffffffffffffffffffffffffffffffffffffffff16905081600560006101000a81548173ffffffffffffffffffffffffffffffffffffffff021916908373ffffffffffffffffffffffffffffffffffffffff1602179055508173ffffffffffffffffffffffffffffffffffffffff168173ffffffffffffffffffffffffffffffffffffffff167f8be0079c531659141344cd1fd0a4f28419497f9722a3daafe3b4186f6b6457e060405160405180910390a35050565b600073ffffffffffffffffffffffffffffffffffffffff168473ffffffffffffffffffffffffffffffffffffffff1603610a765760006040517fe602df05000000000000000000000000000000000000000000000000000000008152600401610a6d91906110b1565b60405180910390fd5b600073ffffffffffffffffffffffffffffffffffffffff168373ffffffffffffffffffffffffffffffffffffffff1603610ae85760006040517f94280d62000000000000000000000000000000000000000000000000000000008152600401610adf91906110b1565b60405180910390fd5b81600160008673ffffffffffffffffffffffffffffffffffffffff1673ffffffffffffffffffffffffffffffffffffffff16815260200190815260200160002060008573ffffffffffffffffffffffffffffffffffffffff1673ffffffffffffffffffffffffffffffffffffffff168152602001908152602001600020819055508015610bd5578273ffffffffffffffffffffffffffffffffffffffff168473ffffffffffffffffffffffffffffffffffffffff167f8c5be1e5ebec7d5bd14f71427d1e84f3dd0314c0f7b2291e5b200ac8c7c3b92584604051610bcc9190610fd0565b60405180910390a35b50505050565b600073ffffffffffffffffffffffffffffffffffffffff168373ffffffffffffffffffffffffffffffffffffffff1603610c2d578060026000828254610c2191906112b8565b92505081905550610d00565b60008060008573ffffffffffffffffffffffffffffffffffffffff1673ffffffffffffffffffffffffffffffffffffffff16815260200190815260200160002054905081811015610cb9578381836040517fe450d38c000000000000000000000000000000000000000000000000000000008152600401610cb093929190611252565b60405180910390fd5b8181036000808673ffffffffffffffffffffffffffffffffffffffff1673ffffffffffffffffffffffffffffffffffffffff16815260200190815260200160002081905550505b600073ffffffffffffffffffffffffffffffffffffffff168273ffffffffffffffffffffffffffffffffffffffff1603610d495780600260008282540392505081905550610d96565b806000808473ffffffffffffffffffffffffffffffffffffffff1673ffffffffffffffffffffffffffffffffffffffff168152602001908152602001600020600082825401925050819055505b8173ffffffffffffffffffffffffffffffffffffffff168373ffffffffffffffffffffffffffffffffffffffff167fddf252ad1be2c89b69c2b068fc378daa952ba7f163c4a11628f55a4df523b3ef83604051610df39190610fd0565b60405180910390a3505050565b600081519050919050565b600082825260208201905092915050565b60005b83811015610e3a578082015181840152602081019050610e1f565b60008484015250505050565b6000601f19601f8301169050919050565b6000610e6282610e00565b610e6c8185610e0b565b9350610e7c818560208601610e1c565b610e8581610e46565b840191505092915050565b60006020820190508181036000830152610eaa8184610e57565b905092915050565b600080fd5b600073ffffffffffffffffffffffffffffffffffffffff82169050919050565b6000610ee282610eb7565b9050919050565b610ef281610ed7565b8114610efd57600080fd5b50565b600081359050610f0f81610ee9565b92915050565b6000819050919050565b610f2881610f15565b8114610f3357600080fd5b50565b600081359050610f4581610f1f565b92915050565b60008060408385031215610f6257610f61610eb2565b5b6000610f7085828601610f00565b9250506020610f8185828601610f36565b9150509250929050565b60008115159050919050565b610fa081610f8b565b82525050565b6000602082019050610fbb6000830184610f97565b92915050565b610fca81610f15565b82525050565b6000602082019050610fe56000830184610fc1565b92915050565b60008060006060848603121561100457611003610eb2565b5b600061101286828701610f00565b935050602061102386828701610f00565b925050604061103486828701610f36565b9150509250925092565b60006020828403121561105457611053610eb2565b5b600061106284828501610f00565b91505092915050565b600060ff82169050919050565b6110818161106b565b82525050565b600060208201905061109c6000830184611078565b92915050565b6110ab81610ed7565b82525050565b60006020820190506110c660008301846110a2565b92915050565b6000819050919050565b60006110f16110ec6110e784610eb7565b6110cc565b610eb7565b9050919050565b6000611103826110d6565b9050919050565b6000611115826110f8565b9050919050565b6111258161110a565b82525050565b6000602082019050611140600083018461111c565b92915050565b6000806040838503121561115d5761115c610eb2565b5b600061116b85828601610f00565b925050602061117c85828601610f00565b9150509250929050565b7f4e487b7100000000000000000000000000000000000000000000000000000000600052602260045260246000fd5b600060028204905060018216806111cd57607f821691505b6020821081036111e0576111df611186565b5b50919050565b7f496e76616c6964207072696d61727920746f6b656e2061646472657373000000600082015250565b600061121c601d83610e0b565b9150611227826111e6565b602082019050919050565b6000602082019050818103600083015261124b8161120f565b9050919050565b600060608201905061126760008301866110a2565b6112746020830185610fc1565b6112816040830184610fc1565b949350505050565b7f4e487b7100000000000000000000000000000000000000000000000000000000600052601160045260246000fd5b60006112c382610f15565b91506112ce83610f15565b92508282019050808211156112e6576112e5611289565b5b9291505056fea2646970667358221220e399258419118e2b61ea87ad88b03b241544018bd13d500b1eb439788b7b9e6f64736f6c63430008140033",
  "linkReferences": {},
  "deployedLinkReferences": {}
}