{
  "_format": "hh-sol-artifact-1",
  "contractName": "StakingContract",
  "sourceName": "contracts/Staking.sol",
  "abi": [
    {
      "inputs": [
        {
          "internalType": "address",
          "name": "_primaryToken",
          "type": "address"
        },
        {
          "internalType": "address",
          "name": "_secondaryToken",
          "type": "address"
        }
      ],
      "stateMutability": "nonpayable",
      "type": "constructor"
    },
    {
      "inputs": [
        {
          "internalType": "address",
          "name": "owner",
          "type": "address"
        }
      ],
      "name": "OwnableInvalidOwner",
      "type": "error"
    },
    {
      "inputs": [
        {
          "internalType": "address",
          "name": "account",
          "type": "address"
        }
      ],
      "name": "OwnableUnauthorizedAccount",
      "type": "error"
    },
    {
      "anonymous": false,
      "inputs": [
        {
          "indexed": true,
          "internalType": "address",
          "name": "previousOwner",
          "type": "address"
        },
        {
          "indexed": true,
          "internalType": "address",
          "name": "newOwner",
          "type": "address"
        }
      ],
      "name": "OwnershipTransferred",
      "type": "event"
    },
    {
      "anonymous": false,
      "inputs": [
        {
          "indexed": true,
          "internalType": "address",
          "name": "user",
          "type": "address"
        },
        {
          "indexed": false,
          "internalType": "uint256",
          "name": "reward",
          "type": "uint256"
        }
      ],
      "name": "RewardClaimed",
      "type": "event"
    },
    {
      "anonymous": false,
      "inputs": [
        {
          "indexed": true,
          "internalType": "address",
          "name": "user",
          "type": "address"
        },
        {
          "indexed": false,
          "internalType": "uint256",
          "name": "amount",
          "type": "uint256"
        }
      ],
      "name": "Staked",
      "type": "event"
    },
    {
      "anonymous": false,
      "inputs": [
        {
          "indexed": true,
          "internalType": "address",
          "name": "user",
          "type": "address"
        },
        {
          "indexed": false,
          "internalType": "uint256",
          "name": "amount",
          "type": "uint256"
        }
      ],
      "name": "Unstaked",
      "type": "event"
    },
    {
      "inputs": [
        {
          "internalType": "address",
          "name": "user",
          "type": "address"
        }
      ],
      "name": "calculateReward",
      "outputs": [
        {
          "internalType": "uint256",
          "name": "",
          "type": "uint256"
        }
      ],
      "stateMutability": "view",
      "type": "function"
    },
    {
      "inputs": [],
      "name": "claimReward",
      "outputs": [],
      "stateMutability": "nonpayable",
      "type": "function"
    },
    {
      "inputs": [],
      "name": "owner",
      "outputs": [
        {
          "internalType": "address",
          "name": "",
          "type": "address"
        }
      ],
      "stateMutability": "view",
      "type": "function"
    },
    {
      "inputs": [],
      "name": "primaryToken",
      "outputs": [
        {
          "internalType": "contract IERC20",
          "name": "",
          "type": "address"
        }
      ],
      "stateMutability": "view",
      "type": "function"
    },
    {
      "inputs": [],
      "name": "renounceOwnership",
      "outputs": [],
      "stateMutability": "nonpayable",
      "type": "function"
    },
    {
      "inputs": [],
      "name": "rewardRate",
      "outputs": [
        {
          "internalType": "uint256",
          "name": "",
          "type": "uint256"
        }
      ],
      "stateMutability": "view",
      "type": "function"
    },
    {
      "inputs": [],
      "name": "secondaryToken",
      "outputs": [
        {
          "internalType": "contract IERC20",
          "name": "",
          "type": "address"
        }
      ],
      "stateMutability": "view",
      "type": "function"
    },
    {
      "inputs": [
        {
          "internalType": "uint256",
          "name": "amount",
          "type": "uint256"
        }
      ],
      "name": "stake",
      "outputs": [],
      "stateMutability": "nonpayable",
      "type": "function"
    },
    {
      "inputs": [
        {
          "internalType": "address",
          "name": "",
          "type": "address"
        }
      ],
      "name": "stakes",
      "outputs": [
        {
          "internalType": "uint256",
          "name": "amount",
          "type": "uint256"
        },
        {
          "internalType": "uint256",
          "name": "timestamp",
          "type": "uint256"
        }
      ],
      "stateMutability": "view",
      "type": "function"
    },
    {
      "inputs": [
        {
          "internalType": "address",
          "name": "newOwner",
          "type": "address"
        }
      ],
      "name": "transferOwnership",
      "outputs": [],
      "stateMutability": "nonpayable",
      "type": "function"
    },
    {
      "inputs": [],
      "name": "unstake",
      "outputs": [],
      "stateMutability": "nonpayable",
      "type": "function"
    }
  ],
  "bytecode": "0x608060405260056004553480156200001657600080fd5b50604051620015d0380380620015d083398181016040528101906200003c91906200027c565b33600073ffffffffffffffffffffffffffffffffffffffff168173ffffffffffffffffffffffffffffffffffffffff1603620000b25760006040517f1e4fbdf7000000000000000000000000000000000000000000000000000000008152600401620000a99190620002d4565b60405180910390fd5b620000c3816200014e60201b60201c565b5081600160006101000a81548173ffffffffffffffffffffffffffffffffffffffff021916908373ffffffffffffffffffffffffffffffffffffffff16021790555080600260006101000a81548173ffffffffffffffffffffffffffffffffffffffff021916908373ffffffffffffffffffffffffffffffffffffffff1602179055505050620002f1565b60008060009054906101000a900473ffffffffffffffffffffffffffffffffffffffff169050816000806101000a81548173ffffffffffffffffffffffffffffffffffffffff021916908373ffffffffffffffffffffffffffffffffffffffff1602179055508173ffffffffffffffffffffffffffffffffffffffff168173ffffffffffffffffffffffffffffffffffffffff167f8be0079c531659141344cd1fd0a4f28419497f9722a3daafe3b4186f6b6457e060405160405180910390a35050565b600080fd5b600073ffffffffffffffffffffffffffffffffffffffff82169050919050565b6000620002448262000217565b9050919050565b620002568162000237565b81146200026257600080fd5b50565b60008151905062000276816200024b565b92915050565b6000806040838503121562000296576200029562000212565b5b6000620002a68582860162000265565b9250506020620002b98582860162000265565b9150509250929050565b620002ce8162000237565b82525050565b6000602082019050620002eb6000830184620002c3565b92915050565b6112cf80620003016000396000f3fe608060405234801561001057600080fd5b50600436106100a95760003560e01c806391ac094c1161007157806391ac094c1461012f578063a694fc3a1461014d578063b88a802f14610169578063d82e396214610173578063f2fde38b146101a3578063f4eb08db146101bf576100a9565b806316934fc4146100ae5780632def6620146100df578063715018a6146100e95780637b0a47ee146100f35780638da5cb5b14610111575b600080fd5b6100c860048036038101906100c39190610c7b565b6101dd565b6040516100d6929190610cc1565b60405180910390f35b6100e7610201565b005b6100f161051e565b005b6100fb610532565b6040516101089190610cea565b60405180910390f35b610119610538565b6040516101269190610d14565b60405180910390f35b610137610561565b6040516101449190610d8e565b60405180910390f35b61016760048036038101906101629190610dd5565b610587565b005b61017161079c565b005b61018d60048036038101906101889190610c7b565b610963565b60405161019a9190610cea565b60405180910390f35b6101bd60048036038101906101b89190610c7b565b610a19565b005b6101c7610a9f565b6040516101d49190610d8e565b60405180910390f35b60036020528060005260406000206000915090508060000154908060010154905082565b6000600360003373ffffffffffffffffffffffffffffffffffffffff1673ffffffffffffffffffffffffffffffffffffffff1681526020019081526020016000209050600081600001541161028b576040517f08c379a000000000000000000000000000000000000000000000000000000000815260040161028290610e5f565b60405180910390fd5b600061029633610963565b90506000826000015490506000836000018190555060008360010181905550600160009054906101000a900473ffffffffffffffffffffffffffffffffffffffff1673ffffffffffffffffffffffffffffffffffffffff1663a9059cbb33836040518363ffffffff1660e01b8152600401610312929190610e7f565b6020604051808303816000875af1158015610331573d6000803e3d6000fd5b505050506040513d601f19601f820116820180604052508101906103559190610ee0565b610394576040517f08c379a000000000000000000000000000000000000000000000000000000000815260040161038b90610f59565b60405180910390fd5b60008211156104cb57600260009054906101000a900473ffffffffffffffffffffffffffffffffffffffff1673ffffffffffffffffffffffffffffffffffffffff1663a9059cbb33846040518363ffffffff1660e01b81526004016103fa929190610e7f565b6020604051808303816000875af1158015610419573d6000803e3d6000fd5b505050506040513d601f19601f8201168201806040525081019061043d9190610ee0565b61047c576040517f08c379a000000000000000000000000000000000000000000000000000000000815260040161047390610fc5565b60405180910390fd5b3373ffffffffffffffffffffffffffffffffffffffff167f106f923f993c2149d49b4255ff723acafa1f2d94393f561d3eda32ae348f7241836040516104c29190610cea565b60405180910390a25b3373ffffffffffffffffffffffffffffffffffffffff167f0f5bb82176feb1b5e747e28471aa92156a04d9f3ab9f45f28e2d704232b93f75826040516105119190610cea565b60405180910390a2505050565b610526610ac5565b6105306000610b4c565b565b60045481565b60008060009054906101000a900473ffffffffffffffffffffffffffffffffffffffff16905090565b600160009054906101000a900473ffffffffffffffffffffffffffffffffffffffff1681565b600081116105ca576040517f08c379a00000000000000000000000000000000000000000000000000000000081526004016105c190611031565b60405180910390fd5b600160009054906101000a900473ffffffffffffffffffffffffffffffffffffffff1673ffffffffffffffffffffffffffffffffffffffff166323b872dd3330846040518463ffffffff1660e01b815260040161062993929190611051565b6020604051808303816000875af1158015610648573d6000803e3d6000fd5b505050506040513d601f19601f8201168201806040525081019061066c9190610ee0565b6106ab576040517f08c379a00000000000000000000000000000000000000000000000000000000081526004016106a2906110d4565b60405180910390fd5b80600360003373ffffffffffffffffffffffffffffffffffffffff1673ffffffffffffffffffffffffffffffffffffffff16815260200190815260200160002060000160008282546106fd9190611123565b9250508190555042600360003373ffffffffffffffffffffffffffffffffffffffff1673ffffffffffffffffffffffffffffffffffffffff168152602001908152602001600020600101819055503373ffffffffffffffffffffffffffffffffffffffff167f9e71bc8eea02a63969f509818f2dafb9254532904319f9dbda79b67bd34a5f3d826040516107919190610cea565b60405180910390a250565b60006107a733610963565b9050600081116107ec576040517f08c379a00000000000000000000000000000000000000000000000000000000081526004016107e3906111a3565b60405180910390fd5b42600360003373ffffffffffffffffffffffffffffffffffffffff1673ffffffffffffffffffffffffffffffffffffffff16815260200190815260200160002060010181905550600260009054906101000a900473ffffffffffffffffffffffffffffffffffffffff1673ffffffffffffffffffffffffffffffffffffffff1663a9059cbb33836040518363ffffffff1660e01b8152600401610890929190610e7f565b6020604051808303816000875af11580156108af573d6000803e3d6000fd5b505050506040513d601f19601f820116820180604052508101906108d39190610ee0565b610912576040517f08c379a000000000000000000000000000000000000000000000000000000000815260040161090990610fc5565b60405180910390fd5b3373ffffffffffffffffffffffffffffffffffffffff167f106f923f993c2149d49b4255ff723acafa1f2d94393f561d3eda32ae348f7241826040516109589190610cea565b60405180910390a250565b600080600360008473ffffffffffffffffffffffffffffffffffffffff1673ffffffffffffffffffffffffffffffffffffffff168152602001908152602001600020905060008160000154036109bd576000915050610a14565b60008160010154426109cf91906111c3565b90506000606460045484600001546109e791906111f7565b6109f19190611268565b90506301e133808282610a0491906111f7565b610a0e9190611268565b93505050505b919050565b610a21610ac5565b600073ffffffffffffffffffffffffffffffffffffffff168173ffffffffffffffffffffffffffffffffffffffff1603610a935760006040517f1e4fbdf7000000000000000000000000000000000000000000000000000000008152600401610a8a9190610d14565b60405180910390fd5b610a9c81610b4c565b50565b600260009054906101000a900473ffffffffffffffffffffffffffffffffffffffff1681565b610acd610c10565b73ffffffffffffffffffffffffffffffffffffffff16610aeb610538565b73ffffffffffffffffffffffffffffffffffffffff1614610b4a57610b0e610c10565b6040517f118cdaa7000000000000000000000000000000000000000000000000000000008152600401610b419190610d14565b60405180910390fd5b565b60008060009054906101000a900473ffffffffffffffffffffffffffffffffffffffff169050816000806101000a81548173ffffffffffffffffffffffffffffffffffffffff021916908373ffffffffffffffffffffffffffffffffffffffff1602179055508173ffffffffffffffffffffffffffffffffffffffff168173ffffffffffffffffffffffffffffffffffffffff167f8be0079c531659141344cd1fd0a4f28419497f9722a3daafe3b4186f6b6457e060405160405180910390a35050565b600033905090565b600080fd5b600073ffffffffffffffffffffffffffffffffffffffff82169050919050565b6000610c4882610c1d565b9050919050565b610c5881610c3d565b8114610c6357600080fd5b50565b600081359050610c7581610c4f565b92915050565b600060208284031215610c9157610c90610c18565b5b6000610c9f84828501610c66565b91505092915050565b6000819050919050565b610cbb81610ca8565b82525050565b6000604082019050610cd66000830185610cb2565b610ce36020830184610cb2565b9392505050565b6000602082019050610cff6000830184610cb2565b92915050565b610d0e81610c3d565b82525050565b6000602082019050610d296000830184610d05565b92915050565b6000819050919050565b6000610d54610d4f610d4a84610c1d565b610d2f565b610c1d565b9050919050565b6000610d6682610d39565b9050919050565b6000610d7882610d5b565b9050919050565b610d8881610d6d565b82525050565b6000602082019050610da36000830184610d7f565b92915050565b610db281610ca8565b8114610dbd57600080fd5b50565b600081359050610dcf81610da9565b92915050565b600060208284031215610deb57610dea610c18565b5b6000610df984828501610dc0565b91505092915050565b600082825260208201905092915050565b7f4e6f207374616b656420746f6b656e7300000000000000000000000000000000600082015250565b6000610e49601083610e02565b9150610e5482610e13565b602082019050919050565b60006020820190508181036000830152610e7881610e3c565b9050919050565b6000604082019050610e946000830185610d05565b610ea16020830184610cb2565b9392505050565b60008115159050919050565b610ebd81610ea8565b8114610ec857600080fd5b50565b600081519050610eda81610eb4565b92915050565b600060208284031215610ef657610ef5610c18565b5b6000610f0484828501610ecb565b91505092915050565b7f556e7374616b65206661696c6564000000000000000000000000000000000000600082015250565b6000610f43600e83610e02565b9150610f4e82610f0d565b602082019050919050565b60006020820190508181036000830152610f7281610f36565b9050919050565b7f526577617264207472616e73666572206661696c656400000000000000000000600082015250565b6000610faf601683610e02565b9150610fba82610f79565b602082019050919050565b60006020820190508181036000830152610fde81610fa2565b9050919050565b7f43616e6e6f74207374616b65207a65726f20746f6b656e730000000000000000600082015250565b600061101b601883610e02565b915061102682610fe5565b602082019050919050565b6000602082019050818103600083015261104a8161100e565b9050919050565b60006060820190506110666000830186610d05565b6110736020830185610d05565b6110806040830184610cb2565b949350505050565b7f5374616b65206661696c65640000000000000000000000000000000000000000600082015250565b60006110be600c83610e02565b91506110c982611088565b602082019050919050565b600060208201905081810360008301526110ed816110b1565b9050919050565b7f4e487b7100000000000000000000000000000000000000000000000000000000600052601160045260246000fd5b600061112e82610ca8565b915061113983610ca8565b9250828201905080821115611151576111506110f4565b5b92915050565b7f4e6f207265776172647320617661696c61626c65000000000000000000000000600082015250565b600061118d601483610e02565b915061119882611157565b602082019050919050565b600060208201905081810360008301526111bc81611180565b9050919050565b60006111ce82610ca8565b91506111d983610ca8565b92508282039050818111156111f1576111f06110f4565b5b92915050565b600061120282610ca8565b915061120d83610ca8565b925082820261121b81610ca8565b91508282048414831517611232576112316110f4565b5b5092915050565b7f4e487b7100000000000000000000000000000000000000000000000000000000600052601260045260246000fd5b600061127382610ca8565b915061127e83610ca8565b92508261128e5761128d611239565b5b82820490509291505056fea2646970667358221220f5f5f7cd5aa1f34a528178670979dade186fea0c775d8166316063dbb509f64f64736f6c63430008140033",
  "linkReferences": {},
  "deployedLinkReferences": {}
}