{
  "_format": "hh-sol-artifact-1",
  "contractName": "WhitelistedVesting",
  "sourceName": "contracts/WhiteListedVestigal.sol",
  "abi": [
    {
      "inputs": [
        {
          "internalType": "address",
          "name": "_primaryToken",
          "type": "address"
        },
        {
          "internalType": "address",
          "name": "_secondaryToken",
          "type": "address"
        }
      ],
      "stateMutability": "nonpayable",
      "type": "constructor"
    },
    {
      "inputs": [
        {
          "internalType": "address",
          "name": "owner",
          "type": "address"
        }
      ],
      "name": "OwnableInvalidOwner",
      "type": "error"
    },
    {
      "inputs": [
        {
          "internalType": "address",
          "name": "account",
          "type": "address"
        }
      ],
      "name": "OwnableUnauthorizedAccount",
      "type": "error"
    },
    {
      "anonymous": false,
      "inputs": [
        {
          "indexed": true,
          "internalType": "address",
          "name": "previousOwner",
          "type": "address"
        },
        {
          "indexed": true,
          "internalType": "address",
          "name": "newOwner",
          "type": "address"
        }
      ],
      "name": "OwnershipTransferred",
      "type": "event"
    },
    {
      "anonymous": false,
      "inputs": [
        {
          "indexed": true,
          "internalType": "address",
          "name": "user",
          "type": "address"
        },
        {
          "indexed": false,
          "internalType": "uint256",
          "name": "amount",
          "type": "uint256"
        }
      ],
      "name": "TokensClaimed",
      "type": "event"
    },
    {
      "anonymous": false,
      "inputs": [
        {
          "indexed": true,
          "internalType": "address",
          "name": "user",
          "type": "address"
        },
        {
          "indexed": false,
          "internalType": "uint256",
          "name": "amount",
          "type": "uint256"
        },
        {
          "indexed": false,
          "internalType": "uint256",
          "name": "duration",
          "type": "uint256"
        }
      ],
      "name": "TokensPurchased",
      "type": "event"
    },
    {
      "anonymous": false,
      "inputs": [
        {
          "indexed": true,
          "internalType": "address",
          "name": "user",
          "type": "address"
        },
        {
          "indexed": false,
          "internalType": "bool",
          "name": "status",
          "type": "bool"
        }
      ],
      "name": "Whitelisted",
      "type": "event"
    },
    {
      "inputs": [
        {
          "internalType": "address",
          "name": "_user",
          "type": "address"
        }
      ],
      "name": "addToWhitelist",
      "outputs": [],
      "stateMutability": "nonpayable",
      "type": "function"
    },
    {
      "inputs": [],
      "name": "claimTokens",
      "outputs": [],
      "stateMutability": "nonpayable",
      "type": "function"
    },
    {
      "inputs": [],
      "name": "owner",
      "outputs": [
        {
          "internalType": "address",
          "name": "",
          "type": "address"
        }
      ],
      "stateMutability": "view",
      "type": "function"
    },
    {
      "inputs": [],
      "name": "primaryToken",
      "outputs": [
        {
          "internalType": "contract IERC20",
          "name": "",
          "type": "address"
        }
      ],
      "stateMutability": "view",
      "type": "function"
    },
    {
      "inputs": [
        {
          "internalType": "uint256",
          "name": "amount",
          "type": "uint256"
        },
        {
          "internalType": "uint256",
          "name": "duration",
          "type": "uint256"
        }
      ],
      "name": "purchaseTokens",
      "outputs": [],
      "stateMutability": "nonpayable",
      "type": "function"
    },
    {
      "inputs": [
        {
          "internalType": "address",
          "name": "_user",
          "type": "address"
        }
      ],
      "name": "removeFromWhitelist",
      "outputs": [],
      "stateMutability": "nonpayable",
      "type": "function"
    },
    {
      "inputs": [],
      "name": "renounceOwnership",
      "outputs": [],
      "stateMutability": "nonpayable",
      "type": "function"
    },
    {
      "inputs": [],
      "name": "secondaryToken",
      "outputs": [
        {
          "internalType": "contract IERC20",
          "name": "",
          "type": "address"
        }
      ],
      "stateMutability": "view",
      "type": "function"
    },
    {
      "inputs": [
        {
          "internalType": "address",
          "name": "newOwner",
          "type": "address"
        }
      ],
      "name": "transferOwnership",
      "outputs": [],
      "stateMutability": "nonpayable",
      "type": "function"
    },
    {
      "inputs": [
        {
          "internalType": "address",
          "name": "",
          "type": "address"
        }
      ],
      "name": "vestingSchedules",
      "outputs": [
        {
          "internalType": "uint256",
          "name": "totalAllocation",
          "type": "uint256"
        },
        {
          "internalType": "uint256",
          "name": "released",
          "type": "uint256"
        },
        {
          "internalType": "uint256",
          "name": "startTime",
          "type": "uint256"
        },
        {
          "internalType": "uint256",
          "name": "duration",
          "type": "uint256"
        }
      ],
      "stateMutability": "view",
      "type": "function"
    },
    {
      "inputs": [
        {
          "internalType": "address",
          "name": "",
          "type": "address"
        }
      ],
      "name": "whitelist",
      "outputs": [
        {
          "internalType": "bool",
          "name": "",
          "type": "bool"
        }
      ],
      "stateMutability": "view",
      "type": "function"
    }
  ],
  "bytecode": "0x60806040523480156200001157600080fd5b506040516200155938038062001559833981810160405281019062000037919062000277565b33600073ffffffffffffffffffffffffffffffffffffffff168173ffffffffffffffffffffffffffffffffffffffff1603620000ad5760006040517f1e4fbdf7000000000000000000000000000000000000000000000000000000008152600401620000a49190620002cf565b60405180910390fd5b620000be816200014960201b60201c565b5081600160006101000a81548173ffffffffffffffffffffffffffffffffffffffff021916908373ffffffffffffffffffffffffffffffffffffffff16021790555080600260006101000a81548173ffffffffffffffffffffffffffffffffffffffff021916908373ffffffffffffffffffffffffffffffffffffffff1602179055505050620002ec565b60008060009054906101000a900473ffffffffffffffffffffffffffffffffffffffff169050816000806101000a81548173ffffffffffffffffffffffffffffffffffffffff021916908373ffffffffffffffffffffffffffffffffffffffff1602179055508173ffffffffffffffffffffffffffffffffffffffff168173ffffffffffffffffffffffffffffffffffffffff167f8be0079c531659141344cd1fd0a4f28419497f9722a3daafe3b4186f6b6457e060405160405180910390a35050565b600080fd5b600073ffffffffffffffffffffffffffffffffffffffff82169050919050565b60006200023f8262000212565b9050919050565b620002518162000232565b81146200025d57600080fd5b50565b600081519050620002718162000246565b92915050565b600080604083850312156200029157620002906200020d565b5b6000620002a18582860162000260565b9250506020620002b48582860162000260565b9150509250929050565b620002c98162000232565b82525050565b6000602082019050620002e66000830184620002be565b92915050565b61125d80620002fc6000396000f3fe608060405234801561001057600080fd5b50600436106100a95760003560e01c806391ac094c1161007157806391ac094c146101185780639b19251a14610136578063e43252d714610166578063f2fde38b14610182578063f4eb08db1461019e578063fdb20ccb146101bc576100a9565b806348c54b9d146100ae578063715018a6146100b85780638ab1d681146100c25780638bf0af3e146100de5780638da5cb5b146100fa575b600080fd5b6100b66101ef565b005b6100c06104a3565b005b6100dc60048036038101906100d79190610bf3565b6104b7565b005b6100f860048036038101906100f39190610c56565b610569565b005b610102610840565b60405161010f9190610ca5565b60405180910390f35b610120610869565b60405161012d9190610d1f565b60405180910390f35b610150600480360381019061014b9190610bf3565b61088f565b60405161015d9190610d55565b60405180910390f35b610180600480360381019061017b9190610bf3565b6108af565b005b61019c60048036038101906101979190610bf3565b610961565b005b6101a66109e7565b6040516101b39190610d1f565b60405180910390f35b6101d660048036038101906101d19190610bf3565b610a0d565b6040516101e69493929190610d7f565b60405180910390f35b600460003373ffffffffffffffffffffffffffffffffffffffff1673ffffffffffffffffffffffffffffffffffffffff16815260200190815260200160002060009054906101000a900460ff1661027b576040517f08c379a000000000000000000000000000000000000000000000000000000000815260040161027290610e21565b60405180910390fd5b6000600360003373ffffffffffffffffffffffffffffffffffffffff1673ffffffffffffffffffffffffffffffffffffffff16815260200190815260200160002090506000816000015411610305576040517f08c379a00000000000000000000000000000000000000000000000000000000081526004016102fc90610e8d565b60405180910390fd5b60008160020154426103179190610edc565b9050600082600301548284600001546103309190610f10565b61033a9190610f81565b9050600083600101548261034e9190610edc565b905060008111610393576040517f08c379a000000000000000000000000000000000000000000000000000000000815260040161038a90610ffe565b60405180910390fd5b808460010160008282546103a7919061101e565b92505081905550600160009054906101000a900473ffffffffffffffffffffffffffffffffffffffff1673ffffffffffffffffffffffffffffffffffffffff1663a9059cbb33836040518363ffffffff1660e01b815260040161040b929190611052565b6020604051808303816000875af115801561042a573d6000803e3d6000fd5b505050506040513d601f19601f8201168201806040525081019061044e91906110a7565b503373ffffffffffffffffffffffffffffffffffffffff167f896e034966eaaf1adc54acc0f257056febbd300c9e47182cf761982cf1f5e4308260405161049591906110d4565b60405180910390a250505050565b6104ab610a3d565b6104b56000610ac4565b565b6104bf610a3d565b6000600460008373ffffffffffffffffffffffffffffffffffffffff1673ffffffffffffffffffffffffffffffffffffffff16815260200190815260200160002060006101000a81548160ff0219169083151502179055508073ffffffffffffffffffffffffffffffffffffffff167fa54714518c5d275fdcd3d2a461e4858e4e8cb04fb93cd0bca9d6d34115f26440600060405161055e9190610d55565b60405180910390a250565b600460003373ffffffffffffffffffffffffffffffffffffffff1673ffffffffffffffffffffffffffffffffffffffff16815260200190815260200160002060009054906101000a900460ff166105f5576040517f08c379a00000000000000000000000000000000000000000000000000000000081526004016105ec90610e21565b60405180910390fd5b6000600360003373ffffffffffffffffffffffffffffffffffffffff1673ffffffffffffffffffffffffffffffffffffffff168152602001908152602001600020600001541461067a576040517f08c379a00000000000000000000000000000000000000000000000000000000081526004016106719061113b565b60405180910390fd5b600081116106bd576040517f08c379a00000000000000000000000000000000000000000000000000000000081526004016106b4906111a7565b60405180910390fd5b600260009054906101000a900473ffffffffffffffffffffffffffffffffffffffff1673ffffffffffffffffffffffffffffffffffffffff166323b872dd3330856040518463ffffffff1660e01b815260040161071c939291906111c7565b6020604051808303816000875af115801561073b573d6000803e3d6000fd5b505050506040513d601f19601f8201168201806040525081019061075f91906110a7565b5060405180608001604052808381526020016000815260200142815260200182815250600360003373ffffffffffffffffffffffffffffffffffffffff1673ffffffffffffffffffffffffffffffffffffffff168152602001908152602001600020600082015181600001556020820151816001015560408201518160020155606082015181600301559050503373ffffffffffffffffffffffffffffffffffffffff167f8fafebcaf9d154343dad25669bfa277f4fbacd7ac6b0c4fed522580e040a0f3383836040516108349291906111fe565b60405180910390a25050565b60008060009054906101000a900473ffffffffffffffffffffffffffffffffffffffff16905090565b600160009054906101000a900473ffffffffffffffffffffffffffffffffffffffff1681565b60046020528060005260406000206000915054906101000a900460ff1681565b6108b7610a3d565b6001600460008373ffffffffffffffffffffffffffffffffffffffff1673ffffffffffffffffffffffffffffffffffffffff16815260200190815260200160002060006101000a81548160ff0219169083151502179055508073ffffffffffffffffffffffffffffffffffffffff167fa54714518c5d275fdcd3d2a461e4858e4e8cb04fb93cd0bca9d6d34115f2644060016040516109569190610d55565b60405180910390a250565b610969610a3d565b600073ffffffffffffffffffffffffffffffffffffffff168173ffffffffffffffffffffffffffffffffffffffff16036109db5760006040517f1e4fbdf70000000000000000000000000000000000000000000000000000000081526004016109d29190610ca5565b60405180910390fd5b6109e481610ac4565b50565b600260009054906101000a900473ffffffffffffffffffffffffffffffffffffffff1681565b60036020528060005260406000206000915090508060000154908060010154908060020154908060030154905084565b610a45610b88565b73ffffffffffffffffffffffffffffffffffffffff16610a63610840565b73ffffffffffffffffffffffffffffffffffffffff1614610ac257610a86610b88565b6040517f118cdaa7000000000000000000000000000000000000000000000000000000008152600401610ab99190610ca5565b60405180910390fd5b565b60008060009054906101000a900473ffffffffffffffffffffffffffffffffffffffff169050816000806101000a81548173ffffffffffffffffffffffffffffffffffffffff021916908373ffffffffffffffffffffffffffffffffffffffff1602179055508173ffffffffffffffffffffffffffffffffffffffff168173ffffffffffffffffffffffffffffffffffffffff167f8be0079c531659141344cd1fd0a4f28419497f9722a3daafe3b4186f6b6457e060405160405180910390a35050565b600033905090565b600080fd5b600073ffffffffffffffffffffffffffffffffffffffff82169050919050565b6000610bc082610b95565b9050919050565b610bd081610bb5565b8114610bdb57600080fd5b50565b600081359050610bed81610bc7565b92915050565b600060208284031215610c0957610c08610b90565b5b6000610c1784828501610bde565b91505092915050565b6000819050919050565b610c3381610c20565b8114610c3e57600080fd5b50565b600081359050610c5081610c2a565b92915050565b60008060408385031215610c6d57610c6c610b90565b5b6000610c7b85828601610c41565b9250506020610c8c85828601610c41565b9150509250929050565b610c9f81610bb5565b82525050565b6000602082019050610cba6000830184610c96565b92915050565b6000819050919050565b6000610ce5610ce0610cdb84610b95565b610cc0565b610b95565b9050919050565b6000610cf782610cca565b9050919050565b6000610d0982610cec565b9050919050565b610d1981610cfe565b82525050565b6000602082019050610d346000830184610d10565b92915050565b60008115159050919050565b610d4f81610d3a565b82525050565b6000602082019050610d6a6000830184610d46565b92915050565b610d7981610c20565b82525050565b6000608082019050610d946000830187610d70565b610da16020830186610d70565b610dae6040830185610d70565b610dbb6060830184610d70565b95945050505050565b600082825260208201905092915050565b7f4e6f742077686974656c69737465640000000000000000000000000000000000600082015250565b6000610e0b600f83610dc4565b9150610e1682610dd5565b602082019050919050565b60006020820190508181036000830152610e3a81610dfe565b9050919050565b7f4e6f2076657374696e67207363686564756c6500000000000000000000000000600082015250565b6000610e77601383610dc4565b9150610e8282610e41565b602082019050919050565b60006020820190508181036000830152610ea681610e6a565b9050919050565b7f4e487b7100000000000000000000000000000000000000000000000000000000600052601160045260246000fd5b6000610ee782610c20565b9150610ef283610c20565b9250828203905081811115610f0a57610f09610ead565b5b92915050565b6000610f1b82610c20565b9150610f2683610c20565b9250828202610f3481610c20565b91508282048414831517610f4b57610f4a610ead565b5b5092915050565b7f4e487b7100000000000000000000000000000000000000000000000000000000600052601260045260246000fd5b6000610f8c82610c20565b9150610f9783610c20565b925082610fa757610fa6610f52565b5b828204905092915050565b7f4e6f20746f6b656e7320746f20636c61696d0000000000000000000000000000600082015250565b6000610fe8601283610dc4565b9150610ff382610fb2565b602082019050919050565b6000602082019050818103600083015261101781610fdb565b9050919050565b600061102982610c20565b915061103483610c20565b925082820190508082111561104c5761104b610ead565b5b92915050565b60006040820190506110676000830185610c96565b6110746020830184610d70565b9392505050565b61108481610d3a565b811461108f57600080fd5b50565b6000815190506110a18161107b565b92915050565b6000602082840312156110bd576110bc610b90565b5b60006110cb84828501611092565b91505092915050565b60006020820190506110e96000830184610d70565b92915050565b7f56657374696e6720616c72656164792065786973747300000000000000000000600082015250565b6000611125601683610dc4565b9150611130826110ef565b602082019050919050565b6000602082019050818103600083015261115481611118565b9050919050565b7f496e76616c6964206475726174696f6e00000000000000000000000000000000600082015250565b6000611191601083610dc4565b915061119c8261115b565b602082019050919050565b600060208201905081810360008301526111c081611184565b9050919050565b60006060820190506111dc6000830186610c96565b6111e96020830185610c96565b6111f66040830184610d70565b949350505050565b60006040820190506112136000830185610d70565b6112206020830184610d70565b939250505056fea2646970667358221220cfca0d987e9b09170b419929e4a709549b37d73d2c9e28e1294e1be20b65cb1c64736f6c63430008140033",
  "linkReferences": {},
  "deployedLinkReferences": {}
}